:020000040000FA
:1000000068030010790100008101000083010000F5
:100010008501000087010000890100000000000048
:100020000000000000000000000000008B01000044
:100030008D010000000000008F0100009101000010
:100040009301000093010000930100009301000060
:100050009301000093010000930100009301000050
:100060009301000093010000930100009301000040
:100070009301000093010000930100009301000030
:100080009301000093010000930100009301000020
:100090009301000093010000930100009301000010
:1000A0009301000093010000930100009301000000
:1000B00093010000930100009301000093010000F0
:1000C00093010000930100009301000000F002F88A
:1000D00000F042F80AA090E8000C82448344AAF1A0
:1000E0000107DA4501D100F037F8AFF2090EBAE89E
:1000F0000F0013F0010F18BFFB1A43F0010318475C
:10010000B8100000D8100000103A24BF78C878C199
:10011000FAD8520724BF30C830C144BF04680C600D
:10012000704700000023002400250026103A28BF55
:1001300078C1FBD8520728BF30C148BF0B60704759
:100140001FB59DE8030000F0F8F900F0EDFA1FBDBF
:1001500010B500F052FB10BD00F0A6FB1146FFF7F2
:10016000EFFF00F0FDFE00F006FC03B4FFF7F0FF28
:1001700003BC00F05FFC00000948804709480047C5
:10018000FEE7FEE7FEE7FEE7FEE7FEE7FEE7FEE747
:10019000FEE7FEE704480549034A054B70470000A7
:1001A000110E0000CD00000068010010680300106F
:1001B000680100102DE9F0410C460746164610462E
:1001C00000F071F82078611C61280AD0722802D0F2
:1001D00077283CD102E00125002405E00225042413
:1001E00002E0082448F2020511F8010B2B2806D082
:1001F000622809D011F8010C74280AD00BE045F0F0
:10020000030544F00204EFE745F0040544F001045F
:10021000EAE744F010043846214600F071F8411C2A
:1002200015D00021316171604FF40071F560F1610A
:100230007061200704D530460222002100F0C2F888
:10024000306D40F0010030653046BDE8F08100209F
:10025000FBE72DE9F0410D460646104C206DC10725
:1002600004D0410804D020F00104F7E722460EE054
:10027000542000F078F807000ED0206D47F00101FF
:10028000084354212065384600F018F93A462946BB
:100290003046BDE8F0418DE70020D6E70C000010A5
:1002A0007047704770472DE9F04704464FF000094A
:1002B0004FF0FF37C568D4E90486A80707D0204669
:1002C00000F0EEF9304600F025F8002802DA384652
:1002D000BDE8F087280502D5404600F064F94C21BE
:1002E000204600F0EBF8206D20F001002065484624
:1002F000EEE770470048704710010010FFFFFFFF56
:100300000EB5CDE9000100F0ABFA0290694601207C
:10031000ABBE0EBD08B5694600900220ABBE08BD5D
:100320001FB58DE8070069460520ABBE04B010BDBF
:100330001FB58DE80F0069460620ABBEF6E708B58D
:10034000694600900920ABBE08BD1CB5CDE900018F
:1003500069460A20ABBE1CBD704708B569460090CF
:100360000C20ABBE08BD70B50646FFF7C3FF05689D
:1003700006F10B0020F00704B4429CBF002070BDC2
:100380002B466A68BAB11068A04210D304F1080184
:1003900088423CBF5068586007D3516810194160CB
:1003A0001168091B016058601460101D70BD134670
:1003B0005268002AE7D12146284600F0AAF8002812
:1003C000DED170BD2DE9F041044616460D46476961
:1003D000007B80072ED03846FFF7B1FF50BB3EB3FD
:1003E000012E02D0022E25D104E0204600F002F9B1
:1003F00005441DE03846FFF7B0FFE168002841F0F2
:100400001001E16005DA204600F016F90120BDE890
:10041000F081C9030BD56268E16A914200D81146A8
:10042000A26911442269891A814200DD0846054407
:10043000002D01DA0220EAE7E16A6068E2688142A1
:1004400006D29103E06203D522F4003141F010029C
:10045000A6690027AE4213DCE16A814201D90B464E
:1004600000E0034603EB060C2369ACEB030CAC4540
:1004700006DD814201D98C4600E084469C4505D1C9
:10048000A760276042F02000A5620DE0AD1BE66981
:10049000AE1B8142A66000D90846C01A281A206007
:1004A0005819606022F0200003490840E0600020F5
:1004B00084F84870ABE70000BFCFD7FF4FF00002D1
:1004C00000B5134694469646203922BFA0E80C504A
:1004D000A0E80C50B1F12001BFF4F7AF090728BF25
:1004E000A0E80C5048BF0CC05DF804EB890028BFA1
:1004F00040F8042B08BF704748BF20F8022B11F0CA
:10050000804F18BF00F8012B704770477047704745
:10051000704738B504460A4600206946AFF30080AC
:10052000002808BF38BD02460099204600F0E6F9D1
:10053000012038BD012000F02EBAF8B5AFF30080DD
:10054000054600200C46102000BF0646A819A04210
:100550000DD9324669460020AFF30080070008BF7E
:1005600000F019FA0098A04218BF0546C419FFF719
:10057000C1FE05600746F01D20F007004619284619
:1005800000F00AF8B44208BFF8BDA21B3146386833
:10059000BDE8F84000F0B2B900210160C0E90110E7
:1005A00070471020704770B50446051FFFF7A2FE84
:1005B0000068002C14BF446870BD002C18BFAC420A
:1005C0003CBF20466468F8D301680A18AA4218BFE5
:1005D000456003D12A680546114401602868411925
:1005E000A1421CBF6C6070BD6168696021680844ED
:1005F000286070BD10B50146C268900703D0900610
:1006000007D5886A0AE000F075F901210160881EAB
:1006100010BD8B69486818440B69C01A91F84830BE
:100620001BB191F84910401A10BD1103FCD50028E8
:10063000FADD401E10BD0000C16821F4001141F038
:100640008001C16000218160016070472DE9F047A1
:10065000814614460E464FF0FF383248D568576938
:10066000054209D03846A169FFF76FFE002811DB6B
:100670002C48C0430540E5602B4632464946384683
:10068000FFF74EFEA16920F00042B21A1144002883
:10069000A16103D02046FFF7CFFF4046BDE8F087B9
:1006A00070B504460569C06A6168884200D808468A
:1006B000E16821F42011E160C90312D5A84208D0F5
:1006C0002246411B2846FFF7C1FF10B14FF0FF3013
:1006D00070BD0020E562C4E90150E06820F480307C
:1006E000E060002070BD10B50446C06820F0200016
:1006F000E060A16AA06988420DD02046FFF7D0FFD4
:10070000E06820F4405040F01000E060A06AA06172
:100710002069E062606044F24001E0688843E06084
:1007200010BD00001000020010B542485421FFF730
:10073000C5FE41485421FFF7C1FE40485421FFF750
:10074000BDFE3F493B483C4A3F4B08603D490A607B
:100750003A491960531C0365481C1065012008655F
:100760003B48344A39A17844FFF724FD20B9384882
:1007700078440A3800F008F937482F4A35A1784400
:10078000FFF718FD20B9344878440A3800F0FCF827
:1007900032482A4A2FA17844FFF70CFD20B92F4890
:1007A00078440A3800F0F0F840232248DC000021A9
:1007B000224600F0BDF820B125487844543800F0B6
:1007C000E3F81D4822464023002100F0B1F820B193
:1007D00021487844543800F0D7F8184822461023AE
:1007E000002100F0A5F8002806D01C487844BDE898
:1007F0001040563800F0C8B810BD104870B5006DF4
:1008000020F001040B48FFF74EFD0B48FFF74BFDAE
:100810000A48FFF748FD09E0206D20F00105204659
:10082000FFF741FD2046FFF7BEFE2C46002CF3D11A
:1008300070BD00000C00001060000010B40000103B
:1008400000000010040000100800001072000000FA
:10085000420A0000770000002E0A00001A0A000079
:1008600010B5431C02E010F8011B71B18107FAD1E9
:100870004FF0013202C88C1A8C4314EAC211F9D02D
:10088000C01A0A0603D0C01E10BDC01A10BD0A044B
:1008900001D0801E10BD0902FCD0401E10BD00001A
:1008A00000487047080100107546FFF7F9FFAE4693
:1008B00005006946534620F00700854618B020B56C
:1008C000FFF768FCBDE820404FF000064FF000073E
:1008D0004FF000084FF0000B21F00701AC46ACE8E8
:1008E000C009ACE8C009ACE8C009ACE8C0098D4655
:1008F0007047000000487047080100100346406838
:100900008C46002818BF88423CBF03464068F8D395
:1009100018681844884207D00CF1030020F0070043
:10092000001D411A521A0146081D0A60FFF73BBE1E
:1009300070B5C468A50713D0650211D4B2F5807FE5
:1009400009D0B2F5007F06D0B2F5806F08D101233F
:1009500000F1240106E05D1E6FF07F46B54201D331
:10096000012070BD0161C361416024F470611143D5
:10097000C160002070BD10B50446AFF30080204672
:10098000BDE81040FFF7F1BB10B500F011F8BDE86D
:10099000104000F007B810B500F024F8BDE8104092
:1009A000AFF30080002801D000F044B87047000089
:1009B00010B5014602A000F043F8012010BD000070
:1009C00053494752545245443A205265646972650E
:1009D00063743A2063616E2774206F70656E3A20ED
:1009E0000000000010B5012805D0002103A000F090
:1009F00027F8012010BD09A1F8E70000534947522C
:100A0000544D454D3A204F7574206F6620686561DE
:100A100070206D656D6F7279000000003A204865A6
:100A20006170206D656D6F727920636F7272757081
:100A30007465640001491820ABBEFEE72600020081
:100A400070B505460C460A2000E06D1C00F011F858
:100A500035B128780028F8D102E0641C00F009F8CC
:100A600014B120780028F8D1BDE870400A20AFF317
:100A7000008008B569468DF800000320ABBE08BDB4
:100A800070B504460D462A2000F0CAFAC4F30720C8
:100A900000F0DAFAE0B200F0D7FA6119491EC1F3AA
:100AA000072000F0D1FA6119491EC8B200F0CCFA53
:100AB00070BD70B504460D462B2000F0B1FAC4F3AA
:100AC000072000F0C1FAE0B200F0BEFA6119491E39
:100AD000C1F3072000F0B8FA6119491EC8B200F04E
:100AE000B3FA70BD70B505464FF4A0710020FFF752
:100AF000C7FFF0210020FFF7DCFF2C2000F090FA68
:100B0000002403E0284600F0B5FA641CB4F5963FD3
:100B1000F8D370BD10B5B048406A20F04070AE49BF
:100B20004862AE48006840F08050AC498039C1F856
:100B30008000A948406A20F04060A7494862A74861
:100B40008038D0F8800040F00050A4498039C1F8C6
:100B500080000846D0F8940040F00050C1F894009E
:100B60009F48D0F8C40040F480609D49C1F8C4009B
:100B70000846D0F8A80140F40010C1F8A801974831
:100B80008038006840F04000944980390860402077
:100B900088619148006820F47C208F4908600846ED
:100BA000006840F42820086008208E49086006206C
:100BB000086102204860052000F0CAF9CF2000F04B
:100BC0002FFA002000F040FA832000F03DFA302098
:100BD00000F03AFAED2000F023FA642000F034FA35
:100BE000032000F031FA122000F02EFA812000F0EC
:100BF0002BFAE82000F014FA852000F025FA0120F5
:100C000000F022FA792000F01FFACB2000F008FA59
:100C1000392000F019FA2C2000F016FA002000F01C
:100C200013FA342000F010FA022000F00DFAF72039
:100C300000F0F6F9202000F007FAEA2000F0F0F9C1
:100C4000002000F001FA002000F0FEF9C02000F0C2
:100C5000E7F91D2000F0F8F9C12000F0E1F91120BA
:100C600000F0F2F9C52000F0DBF9332000F0ECF9D8
:100C7000342000F0E9F9C72000F0D2F9BE2000F0DE
:100C8000E3F9F62000F0CCF9012000F0DDF91020A6
:100C900000F0DAF9002000F0D7F93A2000F0C0F9AE
:100CA000552000F0D1F9362000F0BAF9B82000F054
:100CB000CBF9B12000F0B4F9002000F0C5F91B20F9
:100CC00000F0C2F9B62000F0ABF90A2000F0BCF940
:100CD000A22000F0B9F9F22000F0A2F9002000F003
:100CE000B3F9262000F09CF9012000F0ADF9E020D6
:100CF00000F096F90F2000F0A7F9232000F0A4F9E6
:100D00001F2000F0A1F9092000F09EF90F2000F04B
:100D10009BF9082000F098F94B2000F095F9F2209B
:100D200000F092F9382000F08FF9092000F08CF9DA
:100D3000132000F089F9032000F086F9122000F05A
:100D400083F9072000F080F9042000F07DF9E1200C
:100D500000F066F9002000F077F91D2000F074F92A
:100D6000202000F071F9022000F06EF9112000F04F
:100D70006BF9072000F068F9342000F065F9812054
:100D800000F062F9462000F05FF9062000F05CF9FF
:100D90000E2000F059F90C2000F056F9322000F036
:100DA00053F9382000F050F90F2000F04DF91120D0
:100DB00000F036F90C2000F0CBF8292000F030F9D3
:100DC00006488038D0F8940040F0805003498039BC
:100DD000C1F8940010BD000000C0024080C009208E
:100DE00000C00F400000034070B506460C46154693
:100DF00001213046FFF744FE01212046FFF759FE4E
:100E00002C2000F00DF9284600F034F970BD0000E8
:100E100020204B4908604B48D0F8A00100F020008A
:100E200030B100BF4648006800F040000028F9D00B
:100E3000032043499C39086000204249C1F8A801B9
:100E40003F490C31086001203D49943908603E4813
:100E50003C4984310860AA203A498C310860552009
:100E600008600120374980310860AA2035498C315B
:100E7000086055203349C1F88C0000BF31488830E4
:100E8000006800F080600028F8D003202D498031F0
:100E90000860AA202B49C1F88C00552029498C31C3
:100EA000086000BF27488830006800F04070B0F14B
:100EB000407FF7D123202349A4310860AA2021498B
:100EC000C1F8AC0055201F49AC31086001201D4914
:100ED000A0310860AA201B49AC310860552019498F
:100EE000C1F8AC0000BF1748A830006800F480606B
:100EF0000028F8D003201349A0310860AA20114926
:100F0000C1F8AC0055200F49AC31086000BF0D4856
:100F1000A830006800F44070B0F5407FF7D10B486E
:100F20000849C431086000200649C1F8C8010846D4
:100F3000006820F4704040F4804008607047000072
:100F4000A0C10F4000C00F4063000500DE872804E9
:100F5000800400BF011EA0F10100FBD1704700001A
:100F60002DE9F047FFF7D6FD4FF6FF70FFF7BAFD0A
:100F70001DA11EA0FFF76DF98246BAF1000F03D044
:100F80004FF47840FFF7AEFD002418274FF01E08FD
:100F90004FF03C09002521E00C2095FBF0F100FB0F
:100FA000115000B9BF1E3F2C00DD0024002611E0C7
:100FB0001148405D80213141084050B109EB0602E3
:100FC000D11908EB04000022FFF70EFF0120FFF704
:100FD000BFFF761C082EEBDB641C6D1CFF2DDBDDD8
:100FE0000020BDE8F0870000720000006269746DA7
:100FF0006170312E626D7000AC1000000146C1F3CB
:101000000800064A906000BF0448C06800F0100065
:101010000028F9D101488068C0B270470000034041
:1010200010B504460748406920F040000549486172
:101030002046FFF7E3FF0348406940F040000149C4
:10104000486110BD00C0092010B504460848406939
:1010500020F040000649486144F48070FFF7CEFF5D
:101060000348406940F040000149486110BD00005C
:1010700000C0092010B504460B48406920F040002C
:1010800009494861491541EA2420FFF7B7FFE1B259
:1010900041F48070FFF7B2FF0348406940F0400020
:1010A0000149486110BD000000C009200000000097
:1010B0000000000000000080C060F0F060C0800010
:1010C0000000000000000000000000000000000020
:1010D000000000008080808080F8F8808080808020
:1010E0000000000000000000000000000000000000
:1010F000000000080C0603010000FFFF00000103D0
:10110000060C0800000000000000000000000000C5
:10111000000000000101010101FFFF0101010101C7
:1011200000000000000000000000000000000000BF
:1011300000000000E0180404040203030204040495
:1011400018E00000000000000000000000000000A7
:10115000000000E01804040402030302040404185D
:10116000E00000000000000000000000000000009F
:101170000000000000030404040808080804040434
:10118000030000000000000000000000000000005C
:101190000000000003040404080808080404040311
:1011A0000000000000000000000000003A7474001D
:1011B0003A7474003A747400D811000000000010F2
:1011C0000C00000008010000E41100000C000010F9
:1011D0005C0300002401000000000000000000008B
:0411E000000000000B
:04000005000001797D
:00000001FF
