:020000040000FA
:100000006802001069010000710100007301000026
:100010007501000077010000790100000000000078
:100020000000000000000000000000007B01000054
:100030007D010000000000007F0100008101000040
:1000400083010000830100008301000083010000A0
:100050008301000083010000830100008301000090
:100060008301000083010000830100008301000080
:100070008301000083010000830100008301000070
:100080008301000083010000490200008301000099
:100090008301000083010000830100008301000050
:1000A0008301000083010000830100008301000040
:1000B0008301000083010000830100008301000030
:1000C00083010000830100008301000000F002F8BA
:1000D00000F03AF80AA090E8000C82448344AAF1A8
:1000E0000107DA4501D100F02FF8AFF2090EBAE8A6
:1000F0000F0013F0010F18BFFB1A43F0010318475C
:10010000E806000008070000103A24BF78C878C14C
:10011000FAD8520724BF30C830C144BF04680C600D
:10012000704700000023002400250026103A28BF55
:1001300078C1FBD8520728BF30C148BF0B60704759
:100140001FB51FBD10B510BD00F02FF81146FFF709
:10015000F7FF00F0BFFA00F04DF803B4FFF7F2FF2D
:1001600003BC00F055F800000948804709480047E3
:10017000FEE7FEE7FEE7FEE7FEE7FEE7FEE7FEE757
:10018000FEE7FEE704480549034A054B70470000B7
:1001900095050000CD000000680000106802001006
:1001A00068000010704770477047754600F02CF8E3
:1001B000AE4605006946534620F00700854618B054
:1001C00020B5FFF7DFFFBDE820404FF000064FF0FD
:1001D00000074FF000084FF0000B21F00701AC467C
:1001E000ACE8C009ACE8C009ACE8C009ACE8C0099B
:1001F0008D46704710B50446AFF300802046BDE839
:100200001040FFF7AABF0000004870470800001028
:1002100001491820ABBEFEE72600020070477CB5FE
:1002200006460C4615468DF80060E0B28DF80100D8
:100230008DF80250684600F09AF97CBD002100E07C
:10024000491C8142FCD3704710B5002000F00AF829
:1002500003480078401C0249087000F0B5F810BD52
:100260000000001001218140014A11607047000028
:1002700040C10F4010B50446002005490860617870
:10028000207800F03DF8A178207800F053F810BDF8
:1002900040C10F4018B5044664B900208DF8000035
:1002A00001208DF8010000208DF802006846FFF75C
:1002B000E1FF00BF00BF18BD0020044908600449E9
:1002C000C1F8480101490C310860704740C10F4036
:1002D00000C00F4070B506460C46304600F044F8AA
:1002E000054605B1EC6170BD70B506460C4630465A
:1002F00000F03AF8054605B1AC6170BDFFFFFFFFA5
:10030000012908D1094A1268012383401A43084B86
:10031000C3F8482108E039B9044A12680123834030
:100320009A43034BC3F848217047000048C10F406F
:1003300000C00F40012908D1094A126801238340F7
:100340001A43084BC3F84C2108E039B9044A126833
:10035000012383409A43034BC3F84C2170470000AC
:100360004CC10F4000C00F4001460020052912D2A9
:10037000DFE801F00305080B0E0008480CE0074811
:10038000203009E00548403006E00448603003E0D2
:100390000248803000E000BF00BF704700C0092065
:1003A0002DE9F04107460D4616463846FFF7DCFFBB
:1003B00004463CB11EB120682843206002E020685A
:1003C000A8432060BDE8F08110B54FF080510120B6
:1003D000FFF780FF4FF000510120FFF77BFF4FF048
:1003E00000410120FFF776FF04210220FFF772FF92
:1003F00008210220FFF76EFF10210220FFF76AFF9D
:1004000020210220FFF766FF40210220FFF762FF54
:1004100010BD10B504460A2C65D2DFE804F064056F
:10042000101B26303A444E58012211071046FFF7A0
:10043000B7FF4FF080510120FFF74CFF53E001223E
:1004400051071046FFF7ACFF4FF000510120FFF7B6
:1004500041FF48E00122D1071046FFF7A1FF4FF00E
:1004600000410120FFF736FF3DE001220421022078
:10047000FFF796FF04210220FFF72CFF33E0012253
:1004800008210220FFF78CFF08210220FFF722FF3E
:1004900029E0012210210220FFF782FF1021022013
:1004A000FFF718FF1FE0012220210220FFF778FF4D
:1004B00020210220FFF70EFF15E00122402102203B
:1004C000FFF76EFF40210220FFF704FF0BE001223F
:1004D0004FF030411046FFF763FF01227C210220DC
:1004E000FFF75EFF00BF00BF10BD10B504460A2C29
:1004F0003BD2DFE804F03A050B11171C21262B3004
:100500004FF080510120FFF7EFFE2EE04FF0005139
:100510000120FFF7E9FE28E04FF000410120FFF73E
:10052000E3FE22E004210220FFF7DEFE1DE00821A9
:100530000220FFF7D9FE18E010210220FFF7D4FEB9
:1005400013E020210220FFF7CFFE0EE04021022021
:10055000FFF7CAFE09E04FF030410120FFF7C4FE6B
:100560007C210220FFF7C0FE00BF00BF10BD10B508
:100570000446A2786178207800F0F6F8E278617895
:10058000207800F011F922796178207800F0D4F811
:1005900010BD000020204B4908604B48D0F8A00156
:1005A00000F0200030B100BF4648006800F0400075
:1005B0000028F9D0032043499C39086000204249B3
:1005C000C1F8A8013F490C31086001203D49943928
:1005D00008603E483C4984310860AA203A498C3181
:1005E0000860552008600120374980310860AA2042
:1005F00035498C31086055203349C1F88C0000BF63
:1006000031488830006800F080600028F8D003206E
:100610002D4980310860AA202B49C1F88C00552053
:1006200029498C31086000BF27488830006800F0F5
:100630004070B0F1407FF7D123202349A4310860F6
:10064000AA202149C1F8AC0055201F49AC310860EF
:1006500001201D49A0310860AA201B49AC31086067
:1006600055201949C1F8AC0000BF1748A8300068F0
:1006700000F480600028F8D003201349A0310860FE
:10068000AA201149C1F8AC0055200F49AC310860CF
:1006900000BF0D48A830006800F44070B0F5407FFE
:1006A000F7D10B480849C431086000200649C1F859
:1006B000C8010846006820F4704040F4804008609B
:1006C00070470000A0C10F4000C00F40630005004C
:1006D000DE872804FFF7F0FD0920FFF79AFE0122CC
:1006E0000A210220FFF79BFD0020FFF7D3FD122017
:1006F000012181404209920002F1E022C2F800117A
:1007000000BF13E00A48006880080A21B0FBF1F43A
:100710002046FFF793FD07480078082802DD0120F6
:100720000449087003480078FFF7DFFEEAE700009D
:10073000040000100000001030B50B460949012AE2
:1007400007D151F8204001259D402C4341F820401D
:1007500006E051F8204001259D40AC4341F820407F
:1007600030BD000068C00240F0B504460B46154697
:10077000194660000B4A102901D31039401C52F869
:1007800020604FEA410C032707FA0CF7BE4342F8FA
:10079000206052F820604F0005FA07F73E4342F808
:1007A0002060F0BD00C00240F0B504460B4615467F
:1007B000194660000B4A102901D31039401C52F829
:1007C00020604FEA410C032707FA0CF7BE4342F8BA
:1007D000206052F820604F0005FA07F73E4342F8C8
:1007E0002060F0BD40C0024008080000000000107A
:1007F00008000000080100001008000008000010B8
:1008000060020000240100000100000000E1F50585
:04000005000001698D
:00000001FF
