:020000040000FA
:10000000A0040010150200001D0200001F020000E5
:100010002102000023020000250200000000000071
:1000200000000000000000000000000027020000A7
:1000300029020000000000002B0200002D02000039
:100040002F02000089250000D92500002F020000A2
:100050002F020000C92A00002F0200002F0200001A
:100060002F0200002F0200002F0200002F020000CC
:100070002F0200002F0200002F0200002F020000BC
:100080002F0200002F0200002F0200002F020000AC
:100090002F0200002F020000511E00002F0200005E
:1000A0002F0200002F0200002F0200002F0200008C
:1000B0002F0200002F0200002F0200002F0200007C
:1000C0002F0200002F0200002F02000000F002F8B3
:1000D00000F090F80AA090E8000C82448344AAF152
:1000E0000107DA4501D100F085F8AFF2090EBAE850
:1000F0000F0013F0010F18BFFB1A43F0010318475C
:10010000303A0000503A0000103A24BF78C878C155
:10011000FAD8520724BF30C830C144BF04680C600D
:10012000704700000023002400250026103A28BF55
:1001300078C1FBD8520728BF30C148BF0B60704759
:100140006E2900F04183702900F08D86662903F046
:100150003E84652903F03B84672903F038846129D4
:1001600003F0378403681B0A28BF41F08001692926
:1001700000F0EE82642900F0EB82752900F0E8823D
:100180006F2900F01A86782900F05986E92900F0D5
:10019000B585E42900F0B285F52900F0AF85EF2997
:1001A00000F01786F82900F058860368DB0928BF9D
:1001B00041F08001632901F0C780732901F0CC80F0
:1001C000E32901F0D780F32901F0DC80002070479B
:1001D0001FB500F08DF804000020002103F08AFA1A
:1001E000401C60600020002103F06EFAE0601FBD3B
:1001F00010B510BD01F060F91146FFF7E9FF03F0FB
:1002000003F801F087F903B4FFF7F2FF03BC01F034
:100210008BF900000948804709480047FEE7FEE7E0
:10022000FEE7FEE7FEE7FEE7FEE7FEE7FEE7FEE7A6
:1002300004480549034A054B704700001D2400008F
:10024000CD000000A0020010A0040010A0020010C9
:100250001CB50C46064B7B4469460090204600F0D6
:10026000DCFC04460020694600F03CF820461CBD3A
:100270008B0000000FB41CB5084B06AA7B446946EE
:100280000090059800F0C9FC04460020694600F083
:1002900029F820461CBC5DF814FB00006500000036
:1002A00010B5431C02E010F8011B71B18107FAD1AF
:1002B0004FF0013202C88C1A8C4314EAC211F9D0F3
:1002C000C01A0A0603D0C01E10BDC01A10BD0A0411
:1002D00001D0801E10BD0902FCD0401E10BD704729
:1002E000704770470A6802F8010B0A607047000007
:1002F000004870476002001070470000FFFFFFFFDA
:1003000053EA020C00F069802DE9F04B4FF0000633
:10031000002B1FBFB3FA83F503FA05F424FA05F6A0
:100320005E4012BF1643B2FA82F502FA05F4C5F137
:1003300020051EBF22FA05FC44EA0C04203556EACB
:10034000044C4FEA144418BF641C4FF000084FF0EF
:100350000009904271EB030C39D3002919BFB1FA9F
:1003600081F701FA07F6B0FA80F700FA07F6C7F14D
:1003700020071EBF20FA07FC46EA0C062037B6FB12
:10038000F4FCA7EB0507103F07F01F0BCBF120068D
:100390000CFA0BFB2CFA06F644BFB3460026202FBE
:1003A000A4BF5E464FF0000B5BEA060C08BF4FF09F
:1003B000010B19EB0B09ABFB027C48EB0608C01BD9
:1003C00006FB02CC0BFB03CC71EB0C01C1E70B4627
:1003D000024641464846BDE8F08B13B54FF0000099
:1003E0004FF00001AFF30080BDE81C4070470000F3
:1003F0002DE9F05F894604464FF0000ADFF874B13A
:10040000FB44C0F820A02046E1688847002874D04B
:10041000252806D0D4E901219047206A401C20629B
:10042000F1E700265F462046E16888472028054618
:1004300007DB312D05D2781910F8200C08B10643DE
:10044000F1E7B00701D526F00406C4F81CA0002788
:10045000C4F818A02A2D09D0284602F06FFE38B340
:1004600004EB8708303DC8F8185019E059F8041B10
:10047000204604EB87029161E1688847012F054619
:1004800018D1E069002820DA26F020061DE0D8F80F
:10049000180000EB800005EB40003038C8F8180069
:1004A0002046E1688847054602F048FE0028EED164
:1004B000012F0AD02E2D08D12046E16888477F1CE5
:1004C0000546022F46F02006C4DBA069002803DAA7
:1004D000404246F00106A061F00701D026F0100668
:1004E0006C2D0BD0682D09D04C2D39D06A2D35D00C
:1004F000742D35D07A2D33D016E038E0E1682F46E0
:1005000020468847B842054609D16C2F26D04FF4C3
:100510008060E168064320468847054604E06C2F6A
:100520001AD04FF4807006430DB3A5F1410019288D
:1005300002D8203546F400664A4629462046266001
:100540004E46FFF7FDFD80B101280BD0F61D26F0C9
:10055000070000F1080956E74020E4E78020D8E7CB
:100560000020D6E706F104094DE7284652E7206A45
:10057000BDE8F09FD23500004FF000020429C0F022
:10058000128010F0030C00F01B80CCF1040CBCF1C5
:10059000020F18BF00F8012BA8BF20F8022BA1EB17
:1005A0000C0100F00DB85FEAC17C24BF00F8012BFC
:1005B00000F8012B48BF00F8012B70474FF00002F4
:1005C00000B5134694469646203922BFA0E80C5049
:1005D000A0E80C50B1F12001BFF4F7AF090728BF24
:1005E000A0E80C5048BF0CC05DF804EB890028BFA0
:1005F00040F8042B08BF704748BF20F8022B11F0C9
:10060000804F18BF00F8012B704700004FF0013CED
:1006100050F8042B51F8043B9A4221D1A2EB0C0371
:10062000934313EACC1317D150F8042B51F8043B31
:100630009A4215D1A2EB0C03934313EACC130BD1CE
:1006400050F8042B51F8043B9A4209D1A2EB0C0359
:10065000934313EACC13DBD04FF00000704700BF88
:10066000D01A01BAB1FA81F101F0180122FA01F0B1
:10067000CB40C1F12001DBB2C0B2C01A2CFA01F3A9
:10068000D11A914311EAC311E6D1704770B50446FF
:1006900085690068C10601D5302600E02026C00724
:1006A00007D070BDD4E9012130469047206A401C34
:1006B00020626D1EF6D570BD70B504468569007860
:1006C000C00707D170BDD4E9012120209047206ADE
:1006D000401C20626D1EF6D570BD09684A0501D523
:1006E00040B27047C905FCD500B2704709684A0599
:1006F00001D5C0B27047C905FCD580B2704770B54E
:100700000C460546012A05D02878800600D5EA69FE
:10071000002302E0012305E05B1C934202D2E05C6F
:100720000028F9D1A869E618C01AA861286A1844F7
:1007300028622846FFF7AAFF04E0D5E9012114F852
:10074000010B9047B442F8D32846FFF7B5FF70BDC0
:100750002DE9F0410646002410687529314616A59A
:1007600010D0FFF7BAFF002802DA404213A507E0D5
:1007700031688A0701D512A502E0490704D511A501
:10078000012401E0FFF7B2FF00210A2206F124074D
:1007900009E0B0FBF2FCB0FBF2F302FB1C003030CE
:1007A00078541846491C0028F3D123462A4630467F
:1007B000BDE8F04100F0A7BB000000002D000000E4
:1007C0002B0000002000000011680268006A530539
:1007D00001D508700AE0D30501D5088006E01306AC
:1007E00003D5C217C1E9000200E00860012070478C
:1007F00070472DE9FF4F0C461E464FF0FF378BB078
:10080000D2E90001DDF860800A908A46C1F30A55FA
:1008100005B93D46002108464FF00000BAF1000F2F
:1008200000F4400005DA00EB80004FF4400101EADB
:1008300050004FEA9059B9F1010F00DDB9460A980E
:1008400050EA4A000ED044F61050A5F2FF35454359
:100850002F14B8F1000F1ED07542291E1EDDC9F1FC
:1008600000021CE0B8F1010F4FF0000001D0302170
:1008700003E0F24305E02154401CB042FBDB30466C
:100880000022002121540B99C1F80880C1E9002001
:100890000FB0BDE8F08FBD1B6D1CDEE74A4600DAE5
:1008A000694206A800F072FD06AB93E8070003ABAF
:1008B00083E8070050460A9900F03CFE8DE80700E7
:1008C000A0F500501F3800900398002D0ADD42F279
:1008D0001F014A460844002303A90390684601F01B
:1008E000A5F809E0A0F500504A461F38002303A9E7
:1008F0000390684601F0AFF88DE807000004000C93
:1009000003D04FF0FF30410800E01046B8F1000F6F
:1009100003D00022009215461EE0751E05D400F09B
:10092000ADFA303262556D1EF9D5B3460122084347
:1009300002D000227F1C04E02078302801D1002260
:100940007F1E002A099784D01DE0112D07DA00F0E0
:1009500095FA303262556D1C50EA0102F5D1084318
:1009600002D00098C8B10EE00021681E05E0235CAB
:10097000625C63542254401E491C8142F7DBAB4643
:10098000A81B401E0990002004F80B000B98099A40
:10099000C0F80880C0E9002B7AE711264FF0000864
:1009A00057E72DE9F04F88460446D21D22F0070193
:1009B00091B0D1E90001CDE90A0102F0ABFB02469A
:1009C0000B98C00F01D02D2007E02068810701D5CA
:1009D0002B2002E0202101EAC000032A099001D067
:1009E000072A05DB03464146204600F063FC0BE185
:1009F0002078800601D5E06900E00620B8F1650F97
:100A0000814606D0B8F1660F18D0B8F1670F70D1E3
:100A100031E00020B9F1110F009001DB112301E05A
:100A200009F101030AAA01A90CA8FFF7E2FEDDE91A
:100A30000C70002609F10105834647E001204B4672
:100A400000904FF000470AAA01A90CA8FFF7D1FEB9
:100A5000DDE90DB00C995D46002610B909F10100E1
:100A60000D18B9EB050003D4C0F1FF3609F10105FB
:100A7000A5EB09002BE0B9F1010F01DA4FF00109F4
:100A80000020B9F1110F0090484601DD112300E06C
:100A900003460AAA01A90CA8FFF7ABFEDDE90C701A
:100AA0004D4600268346207800070AD4AB4500DA7D
:100AB0005D4601A8012D04DD411911F8011C302902
:100AC00007D04F4502DA17F1040F04DA01208246FD
:100AD0000FE06D1EEEE7002F02DCED1B3E4403E04D
:100AE000781CA84200DD7D1CB81B00F1010A4FF004
:100AF00000472078000703D4AA4501DB4FF0FF3AF6
:100B00000021B7F1004F0DF143088DF8431024D0B8
:100B100002202B23002F01DA7F422D230A21021EFF
:100B2000A0F1010000DC5FB197FBF1FC97FBF1F253
:100B300001FB1C7C17460CF1300C08F801CDEEE7E8
:100B4000A8F1010003702188090501D5452100E0C5
:100B50006521A0F1010800F8011C09980FA9A1EB7B
:100B60000807FF1D00B10120411901EBEA70A169DE
:100B70003844081A401EA0612078C00602D42046DE
:100B8000FFF784FD099828B1D4E901219047206A34
:100B9000401C20622078C00622D52046FFF776FD53
:100BA0001EE0002E04DBB34502DD01A8805D00E0FD
:100BB0003020D4E901219047206A401C2062761C35
:100BC000AAF101005FEA000A0AD1FFF791FBC068B1
:100BD0000168405CD4E901219047206A401C2062F2
:100BE000281EA5F10105DCDC07E0D4E9012118F895
:100BF000010B9047206A401C2062381EA7F10107B4
:100C0000F3DC2046FFF758FD032011B041E6000059
:100C100001694A1C02610878704700B58FB0CDE9C0
:100C200001310021059105497944CDE903101146B0
:100C30006846FFF7DDFB0FB000BD0000E5FFFFFFDA
:100C40002DE9FF5F15468A460446DFF8AC80F8447C
:100C50000027D8E900103E46CDE9001010E03AF830
:100C600016106A4602A800F003FC411C07D0217848
:100C7000890603D5E269391891420DD80744761CDC
:100C80002078800602D5E069B84205DDAE42E6DB99
:100C90003AF816000028E2D1A069C01BA0612046E6
:100CA000FFF7F4FCD8E90010CDE90010002017E0B0
:100CB0003AF818106A4602A800F0DAFBB0F1FF3FDC
:100CC00081460BD000250DF1080B05E0D4E9012188
:100CD0001BF8050090476D1C4D45F7D308F1010046
:100CE000B0428046E4DB206A384420622046FFF7A9
:100CF000E3FCBDE8FF9F0000962D00002DE9F041C8
:100D00008046D21D22F007020025D2E90002F52913
:100D100015A614D0011E72F1000106DA0023D0EBF3
:100D2000030063EB020211A608E0D8F800108B075D
:100D300001D50FA602E0490701D50EA601251146EF
:100D4000002408F1240704E000F098F830323A5506
:100D5000641C50EA0102F7D12B4632462146404638
:100D6000BDE8F04100F0CFB8000000002D00000009
:100D70002B0000002000000030B4002100F124040A
:100D800008E002F00705D208303542EA4372DB087A
:100D90006554491C52EA0305F3D10468002310A2EC
:100DA000250707D5A40600D421B1C46901230DA2EB
:100DB000641EC46130BC00F0A6B810B504462146DC
:100DC0001068FFF793FC02462046BDE81040002360
:100DD000D2E7D21D22F00701D1E90023CCE70000C1
:100DE0000000000030000000F0B40D460188090545
:100DF00002D5214C7C4402E01F4C7C440E3400217F
:100E000000F1240608E002F00F071209E75D42EA4C
:100E100003721B097754491C52EA0307F3D1027885
:100E20000023120704D5702D06D009B10223113416
:100E30002246F0BC00F067B801231034F8E770B523
:100E400004460D4621461068FFF750FC024629462D
:100E50002046BDE870400023C6E7D21D22F00703FC
:100E6000D3E90023C0E70368126843F0200303605E
:100E70000823C3610023B7E7F82B000030B5B0F1B9
:100E80000A024FEA900E71F100034EEA817EB0EB48
:100E90000E0061EB91014FEA101E4EEA017E10EB4D
:100EA0000E0041EB11114FEA102E4EEA016E10EBCD
:100EB0000E0041EB11214FEA104E4EEA014E10EBAD
:100EC0000E0041EB1141401841F100014FEAD00002
:100ED00040EA41704FEAD10110EB80054FEA8104EE
:100EE00044EA907444EB01046D1944EB0404521B72
:100EF000A3414FF0000348BF0A3200D530BD401C6B
:100F000041F1000130BD2DE9F0470D46994692466A
:100F1000044600F124080168880604D5E06921F040
:100F20001001216000E00120A84201DD471B00E024
:100F30000027A1697A1902EB0900081AA06120783C
:100F4000C00602D42046FFF7A1FB002608E0D4E942
:100F500001211AF806009047206A401C761C206286
:100F60004E45F4DB2078C0060AD52046FFF78EFBFD
:100F700006E0D4E9012130209047206A401C20621D
:100F8000381EA7F10107F4DC07E0D4E9012118F8C5
:100F900005009047206A401C2062281EA5F101052B
:100FA000F3DC2046FFF788FB2078000602D50220FC
:100FB000BDE8F0870120FBE72DE9F04F04460D4620
:100FC000D21D22F0070089B0D0E900974846394683
:100FD00002F0A0F80246F80F01D02D2307E02068A8
:100FE000810701D52B2302E0202101EAC0038DF8FF
:100FF00020300BB1012000E00020032A824601D0FE
:10100000072A04DB2946204600F054F93FE1207806
:10101000800601D40D2500E0E569C7F30A560D2DC1
:1010200049DA00214FEA175B08464FF00000002F15
:1010300000F4400007DA00EB80004FF4400100EBC1
:10104000D07001EA60008115012901DD4FF0FF3108
:1010500000224FEA850CBCF1180F06D31346ACF101
:1010600018004FF08052C24003E04FF4801323FA7F
:101070000CF30CF10C0CBCF1200F04D3ACF1200CE0
:1010800009FA0CF001E007FA0CF000294FF00048D3
:1010900001DD18B90FE00ED140450CD319EB020960
:1010A0005F4121B9404502D19F4329EA0209BBEBC8
:1010B000175F00D0761C2088000502D57B48784455
:1010C00002E07A487844193808AA302302F80A3036
:1010D000037C0AF10101002E0AF1020A53546A4608
:1010E00002DC4FF0300101E04FF031014FF0010818
:1010F0008DF8001002D0A6F2FF3603E059EA47014E
:1011000000D06B4E002D02DC2178090704D54FF08A
:1011100002082E218DF80110C44600210BE0C7F310
:1011200003433F01C35C491C6D1E02F808300529CA
:1011300008F1010801DA002DF1DC00210CE000EBE0
:101140001973491C1B786D1E082902F808304FEAF4
:10115000091908F1010801DA002DF0DC21688B067D
:1011600002D516E0A8F10108E04505DD02EB080311
:1011700013F8013C302BF5D0B8F1000F09DD02EB7C
:10118000080313F8013C2E2B03D1090701D4A8F161
:101190000108002D05DD3E2102F808106D1E08F142
:1011A0000108407C002E02F8080008F1010804DA6A
:1011B0002D20764202F8080002E02B2002F80800F9
:1011C0000A214FF47A70864208F101080BDB96FB86
:1011D000F0F3303302F8083096FBF0F308F1010821
:1011E00000FB136601E0642E0CDB642096FBF0F339
:1011F000303302F8083096FBF0F308F1010800FBE9
:10120000136601E00A2E06DB96FBF1F0303002F89F
:10121000080008F1010896FBF1F001FB1060303086
:1012200002F80800A16908F1010808EB050202EBC9
:101230000A00081AA0612078C00602D42046FFF7F1
:1012400025FA216A08AE01EB0A00206204E0D4E925
:10125000012116F8010B9047BAF1010AF7D2207864
:10126000C00602D52046FFF711FA6E4609E016F8CF
:10127000010B3E280FD0D4E901219047206A401C81
:101280002062B8F10108F2D22046FFF715FA09B042
:101290000320BDE8F08F206A2844206203E0D4E9EF
:1012A0000121302090476D1EEBD3F8E7692900003B
:1012B00002FCFFFF2DE9F0411F46044603260168AA
:1012C000072A01F4006004DB08B116A505E016A5A5
:1012D00003E008B115A500E015A521F0100020607D
:1012E000A069C01EA0610FB1401EA0612046FFF79B
:1012F000CDF94FB1D4E9012138469047206A401C0E
:101300002062C01C206206E0206AFAE7D4E90121CD
:1013100015F8010B9047761EF8D22046FFF7CCF95E
:10132000BDE8F0814E414E006E616E00494E4600B0
:10133000696E660010B5436913B1AFF3008001E038
:10134000FFF7DDF9012010BD127800F124010A70C9
:1013500000224A700122EDE711684FF0FF32E9E701
:1013600010B5436913B1AFF3008001E0FFF768FCEB
:10137000012010BD128800F1240182840022C28461
:101380000122EDE711684FF0FF32E9E72DE9F04760
:10139000814616468AB0354878440DC88DE80D0060
:1013A00032487844801C03AC0DC884E80D0041F637
:1013B0009B300844372190FBF1F290FBF1F5A5F149
:1013C000800501FB12041B3C02D56442012000E0B1
:1013D0000020DFF898A080460027FA44AAF1BE0A50
:1013E0000EE0E0070AD03246684607EB47010123CA
:1013F0000AEB810100F02FFB8DE8070064107F1CD1
:10140000002CEED1194F7F44AE3F19E0E80715D00C
:1014100007EB04100DF1180A90E80E008AE80E00A0
:10142000C068F04201D1981908903246012306A9FC
:1014300003A800F010FB03AB83E807006D10641CE9
:10144000002DE3D14FF0010332466946B8F1000F99
:1014500003A802D000F0EAFA01E000F0FCFAC9E9C2
:101460000001C9F808200AB0BDE8F0872027000075
:1014700070B516460C46054600F044F8036893F82C
:101480000101012806D0FF2C0FD8185D68B101209A
:101490002C7070BDD3F807013246214603F20713C2
:1014A00003442846BDE8704018474FF0FF3070BD38
:1014B00000487047400200107546FFF7F9FFAE463E
:1014C00005006946534620F00700854618B020B550
:1014D000FEF7AEFEBDE820404FF000064FF00007DB
:1014E0004FF000084FF0000B21F00701AC46ACE8CC
:1014F000C009ACE8C009ACE8C009ACE8C0098D4639
:101500007047000010B5FEF7F3FE001D10BD00BFD0
:10151000E521000010B50446AFF300802046BDE889
:101520001040FEF770BE000001491820ABBEFEE778
:10153000260002005FEA400C08BF91F0000F4FEA5E
:101540008C234FEAC12243EA51514FEA1C5018BF85
:1015500000F5F0404FEA300018BF41F000415FEA6B
:101560006C5C00F02980BCF1FF3F08BF40F0804078
:101570007047130C06BF12044FF0100C4FF0000C14
:10158000130E04BF12020CF1080C130F04BF12015A
:101590000CF1040C930F04BF92000CF1020CD30F5A
:1015A00004BF52000CF1010C11464FF00002A0F1F3
:1015B0001F00A0EB0C00704711F0004F08BF7047F0
:1015C00031F000413FF4D5AF0B0C06BF09044FF0DA
:1015D000100C4FF0000C0B0E04BF09020CF1080CAC
:1015E0000B0F04BF09010CF1040C8B0F04BF890021
:1015F0000CF1020CCB0F04BF49000CF1010CCCF133
:101600002003A0EB0C0022FA03F302FA0CF241EAE9
:10161000030100F10100704720F07F4C80EA0300D5
:1016200023F07F47ACEB070303F57C5300F0004049
:1016300003F1FF032DE980494FEA154B09B44FEA46
:10164000144325EA0B4E24EA03480FF2042606EB66
:10165000132749083E785FEA320203FB0667C7F5A5
:10166000000707FB06F64FEA54374FEAD64606F165
:10167000020607FB066CCCF1005C4FEA1C472CEA23
:10168000074C07FB06F40CFB06F504EB15464FEA86
:10169000961634BF00204FF000404FEAD13706FBCA
:1016A00007FC4FEA1C4C0CFB0BF7D21B03FB0CF79F
:1016B00061EB07010CFB0EF7B0EB074072EB174232
:1016C0000CFB08F734BFA2EB0742B2EB074261EB19
:1016D00017414FEA0C444FEA910706FB07FC4FEA1B
:1016E0001C4C0CFB0BF7B0EBC74072EB573203FB03
:1016F0000CF734BFA2EBC742B2EBC74261EB5731E4
:101700000CFB0EF7B0EBC70072EB57720CFB08F73F
:1017100034BFA2EBC702B2EBC70261EB5771039F64
:101720004FEA816141EA921104EBCC044FEAD137D0
:101730004FEA826206FB07FC42EA90124FEA8060A1
:101740004FEA1C4C0CFB0BF7D21B03FB0CF761EBB5
:1017500007010CFB0EF7B0EB074072EB17420CFBD6
:1017600008F734BFA2EB0742B2EB074261EB174127
:101770004FEA8C554FEA910704EB9C2406FB07FCCB
:101780004FEA1C4C0CFB0BF7B0EBC74072EB573227
:1017900003FB0CF734BFA2EBC742B2EBC74261EBCD
:1017A00057310CFB0EF7B0EBC70072EB57720CFB16
:1017B00008F734BFA2EBC702B2EBC70261EB577167
:1017C00015EB4C254FEA816141EA92114FEA8262A2
:1017D0004FEAD13742EA901206FB07FC44F10004BD
:1017E0004FEA80604FEA1C4C0CFB0BF7D21B03FB4B
:1017F0000CF761EB07010CFB0EF7B0EB074072EB47
:1018000017420CFB08F734BFA2EB0742B2EB0742CA
:1018100061EB174115EB1C154FEA813141EA92410A
:101820004FEA823242EA90424FEA80304FEA0C7629
:1018300044F1000448EA03434EEA0B484FF0000E1F
:10184000B2EB080C71EB030724BF624639464EEB3E
:101850000E0E4FF0000B0018524149414BEB0B0BA1
:10186000B2EB080C71EB03077BF1000B24BF62465F
:1018700039464EEB0E0E4FF0000B00185241494115
:101880004BEB0B0BB2EB080C71EB03077BF1000B7E
:1018900024BF624639464EEB0E0E51EA020718BFCE
:1018A00046F0010616EB0E7655F1000254F10001E8
:1018B00003D5BDE88901BDE80088BDE88901BDE820
:1018C0000048B619524141EB0101A3F101037047F1
:1018D00080807F7E7D7C7B7A79787776767574736D
:1018E000727171706F6E6E6D6C6C6B6A6A6968682C
:1018F000676666656464636362616160605F5F5EC2
:101900005E5D5D5C5C5B5B5A5A5959585857575637
:10191000565555555454535352525251515050509C
:101920004F4F4F4E4E4D4D4D4C4C4C4B4B4B4A4AEE
:101930004A49494948484847474747464646454532
:10194000454444444443434343424242424141416B
:10195000002B9C4630D477002BD01CB54FEA3707BC
:1019600003B44FF010004FF01001BAF1000F06D091
:10197000BCF1000FDCBF40F0080040F008014FF060
:1019800000000FBCBDE810400BF1010BBBF1010FD3
:1019900008BF5FEA170722BF12F1010211F101012E
:1019A0004FF0004143F1000300F0004043EA000023
:1019B0007047F9D35708D0E746EA064613F1400FBF
:1019C0004FEA16461FDD13F1200FDFBF16430A460C
:1019D000002120335B42BED0C3F1200746EA064611
:1019E00002FA07F74FEA164646EA0706C3F1200750
:1019F00022FA03F201FA07F721FA03F14FF000038C
:101A000042EA0702A7E746EA020646EA06464FEA26
:101A1000164646EA0106BCBF46EA0646360C4FF0BB
:101A200000034FF000024FF0000194E72DE9804CD5
:101A30009A46934670B491E8380007C831EA400CE2
:101A400048BF34EA430C03D5FFF7E6FDFFF780FFFC
:101A5000F0BCBDE8008C2DE9804C9A46934670B4EA
:101A600091E8380007C810F0804F08BF13F0804F8E
:101A700003D100F005F8FFF76BFFF0BCBDE8008C68
:101A800020F07F4780EA030023F07F4C07EB0C0334
:101A9000A3F57C5300F00040A3F1FE0392F0000F89
:101AA00000F0B38095F0000F00F077802DE9014938
:101AB0004FEA11404FEA144621EA004800FB06FCB9
:101AC00024EA064708FB06F607FB08F800FB07F7C1
:101AD00018EB06484CEB164C4FEA124B18EB074834
:101AE0004FEA15464CEB174022EA0B4E0BFB06FC67
:101AF00025EA06470EFB06F607FB0EFE0BFB07F773
:101B00001EEB064E4CEB164C4FF000061EEB074E3C
:101B10004CEB174B18EB0B0840F1000018EB0E0BC9
:101B200058EB000840F100008F1A4FF000013CBF55
:101B3000C943661B14BFB5EB040C00213CBFC9436D
:101B4000F61B4FEA17444EEA8E0E27EA04454FEA89
:101B50001C4704FB07622CEA074C05FB07F70CFB4C
:101B600005F604FB0CFC16EB074642EB174216EB9E
:101B70000C4642EB1C421BEB060658EB02024141AD
:101B800046EA9E0601D5BDE80189B619524141EBEE
:101B90000101A3F10103BDE801894FEA14454FEAB1
:101BA000114724EA054621EA074C05FB07F406FB2A
:101BB00007F70CFB06F105FB0CFC11EB074144EBAE
:101BC00017444FEA124711EB0C4144EB1C4422EA44
:101BD000074C05FB07F206FB07F70CFB06F605FBB7
:101BE0000CFC16EB074642EB174216EB0C4642EB99
:101BF0001C456A1854F1000148BF7047B61952419C
:101C000041EB0101A3F10103704795F0000F37D0BC
:101C10004FEA11424FEA144721EA024624EA074CF0
:101C200002FB07F106FB07F70CFB06F402FB0CFCBA
:101C300014EB074441EB17414FEA154714EB0C44F2
:101C400041EB1C4125EA074C02FB07F506FB07F7B1
:101C50000CFB06F602FB0CFC16EB074645EB1745A2
:101C600016EB0C4645EB1C42121951F1000148BF1E
:101C70007047B619524141EB0101A3F101037047CE
:101C80004FEA14454FEA114724EA054621EA074C7A
:101C900005FB07F106FB07F70CFB06F24FF0000609
:101CA00005FB0CFC12EB074241EB174112EB0C4217
:101CB00051EB1C4148BF7047921841EB0101A3F161
:101CC0000103704770B504460D461646104884421D
:101CD00000D103E0F7210FA001F037FA05B100BFF2
:101CE00000BF012E05D120680121A94008432060D2
:101CF0000CE0206800F0E06018B1206820F0E0609F
:101D0000206020680121A9408843206070BD000048
:101D1000004003402E2E5C4875696E735F4E58502C
:101D20005F4C5043313736385F4C6962726172796B
:101D30005C447269766572735C736F757263655C1F
:101D40006C7063313778785F6164632E63000000E4
:101D500070B504460D460948844200D104E040F2C3
:101D60000D1107A001F0F1F905B100BF00BF04F1AA
:101D7000100050F82560C6F30B1070BD0040034002
:101D80002E2E5C4875696E735F4E58505F4C504301
:101D9000313736385F4C6962726172795C447269BE
:101DA000766572735C736F757263655C6C706331BA
:101DB0003778785F6164632E630000002DE9F0419D
:101DC00007460E4614461248874200D104E040F20E
:101DD000211110A001F0B9F906B100BF00BF0CB18C
:101DE000012C00D104E040F223110AA001F0ADF96A
:101DF00007F1100050F8265014B105F0004501E03D
:101E000005F0804515B10120BDE8F0810020FBE719
:101E1000004003402E2E5C4875696E735F4E58502B
:101E20005F4C5043313736385F4C6962726172796A
:101E30005C447269766572735C736F757263655C1E
:101E40006C7063313778785F6164632E63000000E3
:101E500010B5012202210F48FFF7B0FFC8B10022E0
:101E600002210C48FFF72EFF02210A48FFF770FFFE
:101E700009490880162001218140084A430942F897
:101E8000231000BF00F082FA012202210148FFF76F
:101E900019FF10BD004003400000001080E100E089
:101EA0002DE9F04104460D461548844200D103E077
:101EB000482114A001F049F91DB12148854200D8FC
:101EC00003E049210FA001F040F90121080300F0CF
:101ED000DFF8002020604FF40018182000F0F4F81C
:101EE000064605EB851707EB46007900B0FBF1F0DD
:101EF000471E48EA0728C4F80080BDE8F0810000CA
:101F0000004003402E2E5C4875696E735F4E58503A
:101F10005F4C5043313736385F4C69627261727979
:101F20005C447269766572735C736F757263655C2D
:101F30006C7063313778785F6164632E63000000F2
:101F4000400D030070B505460C4616461448854200
:101F500000D103E0E42113A001F0F7F87CB1012CDB
:101F60000DD0022C0BD0032C09D0042C07D0052C4B
:101F700005D0062C03D0072C01D0082C00D103E09B
:101F8000E52108A001F0E1F8E8680121A1408843BB
:101F9000E86026B1E9680120A0400143E96070BD16
:101FA000004003402E2E5C4875696E735F4E58509A
:101FB0005F4C5043313736385F4C696272617279D9
:101FC0005C447269766572735C736F757263655C8D
:101FD0006C7063313778785F6164632E6300000052
:101FE00070B505460C461248854200D103E09521A4
:101FF00010A001F0AAF86CB1012C0BD0022C09D072
:10200000032C07D0042C05D0052C03D0062C01D0BE
:10201000072C00D103E0962106A001F096F828686D
:1020200020F0E0602860286840EA0460286070BD05
:10203000004003402E2E5C4875696E735F4E585009
:102040005F4C5043313736385F4C69627261727948
:102050005C447269766572735C736F757263655CFC
:102060006C7063313778785F6164632E63000000C1
:102070007CB506460C4615468DF80060E0B28DF83A
:1020800001008DF80250684600F08BF97CBD00001D
:10209000012909D10A4A12680A4B03401A43084B26
:1020A000C43BC3F8C42009E041B9054A1268054B96
:1020B00083431A40024BC43BC3F8C420704700005E
:1020C000C4C00F40DEF7EFEF70B506460D48046858
:1020D000304600F019F8054635B1012D06D0022D25
:1020E00006D0032D08D105E0042505E0012503E015
:1020F000022501E0082500BF00BFB4FBF5F420462F
:1021000070BD0000240000100146202903D20A46B9
:10211000064B186804E0A1F12002044B1B1D18684F
:1021200020FA02F303F0030070470000A8C10F403B
:1021300010B50A46202801D2034601E0A0F1200391
:102140001946202810D2124B1B6803248C40A3434D
:10215000104CC4F8A8310E4B1B6802FA01F423435B
:102160000C4CC4F8A83111E0094B1B1D1B6803245B
:102170008C40A343074CC4F8AC31054B1B1D1B68B6
:1021800002FA01F42343034CC4F8AC3110BD000043
:10219000A8C10F4000C00F4070B506460C4630463F
:1021A00000F004F8054605B1EC6170BD0146002061
:1021B000052912D2DFE801F00305080B0E000848DC
:1021C0000CE00748203009E00548403006E00448AC
:1021D000603003E00248803000E000BF00BF70477D
:1021E00000C009202DE9F04107460D461646384645
:1021F000FFF7DCFF04463CB11EB120682843206095
:1022000002E02068A8432060BDE8F08170B5064672
:102210000C463046FFF7CAFF054605B1AC6170BDFC
:1022200010B54FF080510120FFF7B6FF4FF000517D
:102230000120FFF7B1FF4FF000410120FFF7ACFF95
:1022400004210220FFF7A8FF08210220FFF7A4FFC6
:1022500010210220FFF7A0FF20210220FFF79CFFA2
:1022600040210220FFF798FF10BD10B54FF08051BC
:102270000120FFF7CBFF4FF000510120FFF7C6FF11
:102280004FF000410120FFF7C1FF04210220FFF7BA
:10229000BDFF08210220FFF7B9FF10210220FFF740
:1022A000B5FF20210220FFF7B1FF40210220FFF7F8
:1022B000ADFF10BD10B504460A2C65D2DFE804F06E
:1022C0006405101B26303A444E580122110710466F
:1022D000FFF788FF4FF080510120FFF75DFF53E0CB
:1022E000012251071046FFF77DFF4FF000510120FA
:1022F000FFF752FF48E00122D1071046FFF772FFB7
:102300004FF000410120FFF747FF3DE0012204218B
:102310000220FFF767FF04210220FFF73DFF33E0B3
:10232000012208210220FFF75DFF08210220FFF7AC
:1023300033FF29E0012210210220FFF753FF102173
:102340000220FFF729FF1FE0012220210220FFF7D2
:1023500049FF20210220FFF71FFF15E00122402145
:102360000220FFF73FFF40210220FFF715FF0BE09F
:1023700001224FF030411046FFF734FF01227C214B
:102380000220FFF72FFF00BF00BF10BD00F01F02AB
:10239000012191404209920002F1E022C2F80011AD
:1023A000704710B50446A2786178207801F05CF897
:1023B000E2786178207801F077F8227961782078E6
:1023C00001F03AF810BD00000FB430B5A1B0002400
:1023D00004E000200DF80400601CC4B2802CF8DB7F
:1023E00025A820906846209A2499FDF731FF002007
:1023F00020906846FDF754FFC5B2002406E01DF8A2
:102400000410054800F07EFB601CC4B2AC42F6DB51
:1024100021B030BC5DF814FB00C0004020204B49C7
:1024200008604B48D0F8A00100F0200030B100BF98
:102430004648006800F040000028F9D003204349D6
:102440009C39086000204249C1F8A8013F490C317D
:10245000086001203D49943908603E483C49843178
:102460000860AA203A498C31086055200860012094
:10247000374980310860AA2035498C3108605520E1
:102480003349C1F88C0000BF31488830006800F043
:1024900080600028F8D003202D4980310860AA20F0
:1024A0002B49C1F88C00552029498C31086000BFA8
:1024B00027488830006800F04070B0F1407FF7D1C5
:1024C00023202349A4310860AA202149C1F8AC0087
:1024D00055201F49AC31086001201D49A03108601A
:1024E000AA201B49AC31086055201949C1F8AC003D
:1024F00000BF1748A830006800F480600028F8D0BA
:1025000003201349A0310860AA201149C1F8AC008A
:1025100055200F49AC31086000BF0D48A830006855
:1025200000F44070B0F5407FF7D10B480849C43142
:10253000086000200649C1F8C8010846006820F478
:10254000704040F48040086070470000A0C10F4018
:1025500000C00F4063000500DE8728040120084901
:102560000870642048600020064908700120487007
:10257000C87000208870087164208860704700006F
:10258000140000102802001010B500214FF0402068
:1025900000F07AF801200449086000214FF0402043
:1025A00000F0BEF810BD0000040000100120084932
:1025B0000870642048600120064908704870C8709F
:1025C00000208870087142F2107088607047000027
:1025D0001C000010340200102DE9F04101211548C3
:1025E00000F052F801211448FFF7FAFC1348018863
:1025F00013A0FFF7E9FE11480088401C01F084F9A0
:1026000007463946174801F0BDF8044601F08EF838
:1026100005462A460B4614A11548FDF72BFE144922
:1026200014A0FFF7D1FEFF211148FDF7A5FFBDE87B
:10263000F0810000008000400040034000000010D6
:10264000436F6E7665727465642041444320566121
:102650006C7565202848455829203A20307825583F
:102660000A00000033335340252E35660000000079
:102670002701001041444320566F6C746167652048
:102680003D202573560A000070B505460C46B5F18D
:10269000402F08D01048854205D01048854202D00E
:1026A0000F48854200D103E0E3210EA000F04DFD6C
:1026B0004CB1012C07D0022C05D0032C03D0042CE4
:1026C00001D0052C00D103E0E42106A000F03DFD7F
:1026D0000120A040286070BD00800040000009403B
:1026E000004009402E2E5C4875696E735F4E58504D
:1026F0005F4C5043313736385F4C69627261727992
:102700005C447269766572735C736F757263655C45
:102710006C7063313778785F74696D65722E630011
:1027200070B504460D46B4F1402F08D00D488442E0
:1027300005D00D48844202D00C48844200D104E008
:102740004FF4D0710AA000F000FD012D04D16068A3
:1027500040F00100606003E0606820F0010060600C
:1027600070BD0000008000400000094000400940AA
:102770002E2E5C4875696E735F4E58505F4C504307
:10278000313736385F4C6962726172795C447269C4
:10279000766572735C736F757263655C6C706331C0
:1027A0003778785F74696D65722E630070B5044682
:1027B0000D46B4F1402F08D03A48844205D03A483B
:1027C000844202D03948844200D104E040F2D7115B
:1027D00037A000F0BAFC287940B12879012805D04B
:1027E0002879022802D02879032800D104E04FF488
:1027F000EC712FA000F0A9FC287830B1012807D097
:10280000022808D003280CD108E0A868A0610AE0DB
:10281000A868E06107E0A868206204E0A868606238
:1028200001E000BFFEE700BF6069297801EB4102CB
:102830000721914088436061687838B160692978E0
:1028400001EB41020121914008436061E87840B109
:102850006069297801EB4101491C01228A4010433B
:102860006061A87840B16069297801EB4101891C59
:1028700001228A4010436061E06B2978042202EB58
:102880004102032191408843E063287900F003006E
:102890002978042202EB41018840E16B0843E063A0
:1028A00070BD000000800040000009400040094069
:1028B0002E2E5C4875696E735F4E58505F4C5043C6
:1028C000313736385F4C6962726172795C44726983
:1028D000766572735C736F757263655C6C7063317F
:1028E0003778785F74696D65722E63002DE9F04763
:1028F00004460D461646B4F1402F08D03F488442A6
:1029000005D03F48844202D03E48844200D104E0D2
:1029100040F231113CA000F018FC1DB1012D01D096
:1029200000D000D104E04FF4997137A000F00DFC05
:10293000B4F1402F08D101210220FFF7A9FB0021AB
:102940000220FFF7F5FB22E02C48844208D1012148
:102950000420FFF79DFB00210420FFF7E9FB16E0B0
:102960002748844208D101218805FFF791FB002107
:102970002C20FFF7DDFB0AE02248844207D1012129
:10298000C805FFF785FB00212E20FFF7D1FBA06AC9
:1029900020F00300A062A06AA0620020A060206175
:1029A000E060606840F002006060606820F0020053
:1029B000606085B93746387818B97868401EE0609D
:1029C00017E0204600F0C4FB8146796800F0DEFB8A
:1029D000401EE0600DE0B046A06A20F00C00A0624E
:1029E000464698F80100012803D1A06A40F004008F
:1029F000A0624FF0FF302060BDE8F087008000400B
:102A000000000940004009402E2E5C4875696E7335
:102A10005F4E58505F4C5043313736385F4C6962D7
:102A2000726172795C447269766572735C736F75FA
:102A30007263655C6C7063313778785F74696D655B
:102A4000722E630010B50446B4F1402F08D00C4834
:102A5000844205D00B48844202D00B48844200D106
:102A600004E04FF4DC7109A000F06FFB606840F0F7
:102A700002006060606820F00200606010BD00002D
:102A80000080004000000940004009402E2E5C48B4
:102A900075696E735F4E58505F4C5043313736380E
:102AA0005F4C6962726172795C44726976657273B7
:102AB0005C736F757263655C6C7063313778785FD7
:102AC00074696D65722E630010B54FF04020FFF7FA
:102AD000B9FF01214FF04020FFF722FE064800F029
:102AE000E3F90649064A1268885405480068401C04
:102AF0000349086010BD000000C00040280000101D
:102B00000800001013B5044601231A4601A9204607
:102B100000F00CFA1CBD4FF4E1310160032141715A
:102B2000002101718171704770B504460D467948E6
:102B3000844208D07848844205D07848844202D044
:102B40007748844200D103E0D12176A000F0FDFA5D
:102B5000687940B16879012805D06879022802D0E7
:102B60006879032800D103E0D2216EA000F0EDFACD
:102B7000A87910B1A879012800D103E0D32169A078
:102B800000F0E3FA287958B12879012808D028798B
:102B9000022805D02879032802D02879042800D1FA
:102BA00003E0D4215FA000F0D0FA5A48844203D158
:102BB00001210820FFF76CFA5748844203D1012114
:102BC0001020FFF765FA5548844203D10121080619
:102BD000FFF75EFA5248844203D101214806FFF70D
:102BE00057FA4D48844223D10720207200202072DA
:102BF00000E02678207D00F001000028F9D1802037
:102C000084F8300000BF207D00F020000028FAD0BA
:102C1000002084F83000606020732062207484F803
:102C20004C0084F8540084F85000267E267D1AE07B
:102C3000072020720020207200E02678207D00F01E
:102C400001000028F9D1802084F8300000BF207DE9
:102C500000F020000028FAD0002084F830006060E6
:102C600020732062267D2E48844202D1002084F801
:102C700024002046296800F037FC2748844203D10D
:102C8000207B00F0C00602E0207B00F0C0066879DF
:102C900030B1012806D0022807D0032808D108E067
:102CA00000BF09E046F0010606E046F0020603E038
:102CB00000BF46F0030600BF00BF2879C0B146F050
:102CC00008062879012806D0022806D0032807D054
:102CD00004280BD107E000BF09E046F0100606E02B
:102CE00046F0200603E046F0300600E000BF00BFDB
:102CF000A87928B1012802D146F0040601E000BFFE
:102D000000BF00BF0448844201D1267300E026734F
:102D100070BD000000C0004000000140008009407C
:102D200000C009402E2E5C4875696E735F4E585086
:102D30005F4C5043313736385F4C6962726172794B
:102D40005C447269766572735C736F757263655CFF
:102D50006C7063313778785F756172742E63000030
:102D60002DE9F04104460D4617463C48844208D000
:102D70003B48844205D03B48844202D03A488442D2
:102D800000D104E040F2B32138A000F0DEF90FB129
:102D9000012F00D104E04FF42D7134A000F0D5F9DB
:102DA000072D15D2DFE805F00406080A0C0E110005
:102DB00001260DE002260BE0042609E0082607E0C4
:102DC000802605E04FF4807602E04FF4007600BFE5
:102DD00000BF2348844213D15DB1012D09D0022DDB
:102DE00007D0052D05D0062D03D0032D01D0042DCD
:102DF00000D114E04FF434711CA000F0A6F90EE0ED
:102E00003DB1012D05D0022D03D0052D01D0062D99
:102E100000D104E04FF4357114A000F096F9012FB1
:102E20000AD10F48844203D160683043606013E0E8
:102E30006068304360600FE00948844206D16068F2
:102E400040F28F31B1430840606005E0606840F2B5
:102E50000731B14308406060BDE8F08100C0004028
:102E6000000001400080094000C009402E2E5C484F
:102E700075696E735F4E58505F4C5043313736382A
:102E80005F4C6962726172795C44726976657273D3
:102E90005C736F757263655C6C7063313778785FF3
:102EA000756172742E63000010B504460C488442AC
:102EB00008D00C48844205D00B48844202D00B480D
:102EC000844200D104E04FF4FD7109A000F03DF907
:102ED0000448844201D1207810BD2078FCE700002E
:102EE00000C00040000001400080094000C00940CF
:102EF0002E2E5C4875696E735F4E58505F4C504380
:102F0000313736385F4C6962726172795C4472693C
:102F1000766572735C736F757263655C6C70633138
:102F20003778785F756172742E6300002DE9FF5F5A
:102F300080468A46934657465C460398012825D129
:102F4000002520E04FF0FF3905E0B9F1000F00D176
:102F500007E0A9F1010998F8140000F0200000280A
:102F6000F3D000BFB9F1000F00D10EE0102607E04A
:102F700017F8011B404600F025F8761E641E6D1CF4
:102F80000EB1002CF4D1002CDCD117E0002512E0AA
:102F900098F8140000F0200000B90EE0102607E0B9
:102FA00017F8011B404600F00DF8641E761E6D1CDC
:102FB0000EB1002CF4D1002CEAD100BF284604B099
:102FC000BDE8F09F70B504460D460C48844208D019
:102FD0000B48844205D00B48844202D00A48844200
:102FE00000D104E040F2E11108A000F0AEF804487E
:102FF000844201D1257000E0257070BD00C0004002
:10300000000001400080094000C009402E2E5C48AD
:1030100075696E735F4E58505F4C50433137363888
:103020005F4C6962726172795C4472697665727331
:103030005C736F757263655C6C7063313778785F51
:10304000756172742E63000070B504460D461E480B
:10305000844208D01D48844205D01D48844202D0D5
:103060001C48844200D104E040F2F2311AA000F082
:103070006CF80DB1012D00D104E040F2F33116A03F
:1030800000F063F8012D10D11048844206D194F865
:10309000300040F0800084F8300014E094F83000F4
:1030A00040F0800084F830000DE00848844205D1EB
:1030B00094F83000002084F8300004E094F83000E8
:1030C000002084F8300070BD00C0004000000140C6
:1030D0000080094000C009402E2E5C4875696E735F
:1030E0005F4E58505F4C5043313736385F4C696201
:1030F000726172795C447269766572735C736F7524
:103100007263655C6C7063313778785F7561727477
:103110002E630000490050EAC12018BF04204A0D68
:1031200018BF40F0010040F2FF72B2EB515F08BFE0
:1031300040F00200012808BF0520704730380A28F7
:1031400001D2012070470020704700BFFEE7000059
:1031500001464FF0FF30B1F1402F01D100200DE0CA
:10316000074A914201D1012008E0064A914201D16B
:10317000022003E0044A914200D10320704700007E
:103180000080004000000940004009402DE9F04760
:1031900081460C46484600F015F8002605460023F7
:1031A0002946A1FB047C06FB04C205FB0321044A5B
:1031B0003846FDF7A5F805462846BDE8F08700002B
:1031C00040420F0070B5054635B1012D09D0022DE2
:1031D0000CD0032D14D10EE00220FEF775FF04463B
:1031E0000EE00420FEF770FF044609E02C20FEF7F5
:1031F0006BFF044604E02E20FEF766FF044600BF86
:1032000000BF204670BD000008B50920FFF752F846
:10321000FFF7A4F9FFF7CAF9564A00214FF0402002
:10322000FFF764FB54494FF04020FFF7BFFA01203D
:10323000FFF7ACF8514A00215148FFF757FB5149BD
:103240004F48FFF7B3FA0220FFF7A0F8012202214E
:103250000020FEF70DFF012203210020FEF708FFEA
:103260004948FFF758FC4FF41650474908600320BF
:10327000487100200871012088714448FFF754FC10
:1032800001214248FFF7E0FE41A0FFF79DF83E48CC
:103290008079401C00903C48037902684079411DC8
:1032A0004B48FFF791F83AA0FFF78EF80520FFF79B
:1032B0006DF8012200213548FFF752FD0122192146
:1032C0000020FEF7D5FE43494348FEF7E9FD012201
:1032D00002214148FEF736FE012202213E48FEF758
:1032E000F1FC1620FFF752F843E03C480068002844
:1032F0003FD03B493BA0FFF767F83BA13848FDF7BB
:1033000085F928B9FEF7B1FF3AA0FFF75DF827E08D
:1033100039A13348FDF77AF928B9FEF781FF35A0C6
:10332000FFF752F81CE037A12D48FDF76FF938B9C7
:1033300001211348FFF7F4F92EA0FFF745F80FE03D
:1033400033A12748FDF762F938B900210C48FFF78F
:10335000E7F928A0FFF738F802E030A0FFF734F8CB
:10336000FF211F48FDF72AF90020324908601B4958
:103370000860BAE714000010280200101C000010BA
:1033800000800040340200100C00001000C000401B
:103390002A2A2A2A2A2A2A2A2A2A2A2A2A2A2A2A8D
:1033A0002A2A2A2A2A2A2A2A2A2A2A2A2A2A2A2A7D
:1033B0002A2A2A2A2A2A2A2A2A2A2A2A2A2A2A2A6D
:1033C0002A2A2A2A2A2A2A2A2A2A2A2A2A2A0A00A7
:1033D000D43A0000400D03000040034004000010F8
:1033E0002800001025730A004C45445F414C4C5F97
:1033F0004F4E00004F4B0A004C45445F414C4C5F20
:103400004F46460053544152545F4144430000002C
:1034100053544F505F414443000000005B455252FB
:103420005D496E76616C696420436F6D6D616E6499
:103430000A0000000800001030B50B460949012AB7
:1034400007D151F8204001259D402C4341F82040F0
:1034500006E051F8204001259D40AC4341F8204052
:1034600030BD000068C00240F0B504460B4615466A
:10347000194660000B4A102901D31039401C52F83C
:1034800020604FEA410C032707FA0CF7BE4342F8CD
:10349000206052F820604F0005FA07F73E4342F8DB
:1034A0002060F0BD00C00240F0B504460B46154652
:1034B000194660000B4A102901D31039401C52F8FC
:1034C00020604FEA410C032707FA0CF7BE4342F88D
:1034D000206052F820604F0005FA07F73E4342F89B
:1034E0002060F0BD40C002402DE9F04F8BB0044693
:1034F0008946002009907048844204D10620FEF7D6
:10350000E3FD074616E06D48844204D10820FEF72B
:10351000DBFD07460EE06A48844204D13020FEF706
:10352000D3FD074606E06748844203D13220FEF708
:10353000CBFD07464FF0FF3B00200790069000258B
:103540002E464FF001084DE00020089040E008981A
:10355000404400FB09FC0020010741EA171138072D
:103560000022A0FB083E01FB08E100FB02106246BE
:10357000CDE900300023DDE90001FCF7C1FECDE913
:10358000040104980390DDF814A00398B0F1004FF3
:1035900004D90398404203900AF1010ABAF1000FDE
:1035A00002D0BAF5803F00D90FE0039858450BD2FE
:1035B000DDF80CB00026554608980790CDF8188025
:1035C000BBF1000F00D106E000BF0898401C089036
:1035D00008984045BBD300BFBBF1000F00D104E009
:1035E00008F10108B8F10F0FAED900BF002185EA3C
:1035F00001007140084302D10BB0BDE8F08F3809DB
:10360000069900FB01FC0846079908440021A0FB2D
:10361000052301FB053100FB06100346CDE9002020
:1036200060460021FCF76CFE02900298814503D9A8
:103630000298A9EB000B02E00298A0EB090B6420B2
:103640000BFB00F0B0FBF9FBBBF1030F32D21B48C0
:10365000844216D1207B40F080002073280A40EA83
:10366000066020712570207B00F07F002073F02120
:10367000069801EA0010079901F00F010843A062C3
:1036800016E0207B40F080002073280A40EA0660A4
:1036900020712570207B00F07F002073F0210698B8
:1036A00001EA0010079901F00F01084384F828008F
:1036B0000120099009989FE700C0004000000140E8
:1036C0000080094000C0094010B500290AD00878E0
:1036D000002807D005487844FCF798FF002801D05F
:1036E000002010BD0248784410BD00007A0400009C
:1036F0007204000010B500290AD00878002807D00D
:1037000005487844FCF782FF002801D0002010BD56
:103710000248784410BD00006A0400006204000002
:103720000808A0F500114FEA3101704743004FEA45
:10373000D30C4FEA3C0C43401FBF40070CF16051D3
:1037400013F0FE4F70471CF0006F03D100200CF007
:10375000004170470CF0004343EA507010B540EA56
:10376000CC0000F0E9F800BF000000924FEA000131
:10377000FFF7D6BF4FF000414FF00000A1F5002148
:10378000704700004FF47F0C1CEAD0121EBF1CEAE9
:10379000D11392EA0C0F93EA0C0F00F0858090EAA7
:1037A000010F48BF42F4807240F4000C41F4000065
:1037B0002CF07F4120F07F4000B58142A2EB030254
:1037C0000FF2081CACEB504EC0F100009EF800E078
:1037D0004FEA4E0E00FB0EFC38BF49004FEA2C1C8E
:1037E00002F5FA020CFB0EF34FEACE1E4FEA112C43
:1037F0004FEAC1210EEB635E42EB22420EFB0CFC52
:103800004FEA1C5300FB03114FEA112C4FEA013120
:103810000EFB0CFC4FEADC4C00FB0C11C14228BF34
:1038200009184CEB03335DF804EB10EB410143EB5B
:10383000C250B2F57C0F38BF704729D512F0F00F97
:103840001CBF00F1C04000F000407047008182833F
:103850008485868788898B8C8D8E8F91929395969F
:1038600097999A9C9D9FA0A2A3A5A7A8AAACAEB029
:10387000B2B3B5B7B9BCBEC0C2C5C7C9CCCED1D42E
:10388000D7D9DCDFE2E6E9ECF0F3F7FAFE0000005E
:103890004FEA400C0CF1807CBCF17E4F28BF704792
:1038A000B0F1C04000F08EB890EA010F0CEAD113DD
:1038B00048BF42F48072624538BF634507D213F4B3
:1038C0007F0F16D080EA010000F00040704710B56D
:1038D00000F032F8097EFC3E00F005B880EA0100F5
:1038E00000F00040704780EA010000F0004000F066
:1038F00069B812F47F0F04BF0248704780EA0100E4
:1039000000F060B80000C07F10F0004148BF4042A6
:10391000B0FA80F310FA03F2C3F19D030BD051EA21
:10392000C35101EB1220530638BF704700F101006C
:1039300008BF20F0010070470EF1020E2EF0030EBA
:103940005EF8044B244204D44FEA4102B2F17F4FA7
:1039500011D84FEA4003B3F17F4F0CD80ED14FEA94
:10396000D07CB2F17F4F0CEB4C0C0CF1020C08BF79
:103970004CEBD17C04E04FF0080C01E04FEAD17C25
:103980000CEB4C0324FA03F404F00704B4F1040C28
:1039900006D20EEB840CBDE810404CF0010C6047E1
:1039A000DFE80CF0070802024FF00040A0F58000AD
:1039B00010BD0846420018BFD2F1807288BF00F0E7
:1039C000004010BDFF2141EAD050C0057047FCF710
:1039D000E8BFFDF7F1BA0400000800000000000095
:1039E00000020001000010000000000000000000C4
:1039F0003031323334353637383941424344454625
:103A0000403058003031323334353637383961621E
:103A10006364656640307800303132333435363790
:103A200038396162636465667870003031323334EE
:103A30003536373839414243444546585000000036
:103A400002400000000000A000000000054000004F
:103A5000000000C8000000000C4000000000409C76
:103A600000000000194000000020BCBE0000000063
:103A700034400000BFC91B8E00000004B5400000A8
:103A8000504BCFD06607E2CF010000006C41000030
:103A90003E8251AADFEEA73401000000D9420000A7
:103AA000DCB5A0E23A301F97FFFFFFFFB4450000EE
:103AB000FD25A0C8E9A3C14FFFFFFFFFFF3F0000A6
:103AC0000000008000000000FF3F000000000080B8
:103AD0000000000066696E616C206578616D2032BF
:103AE00030313630313739315F4A59425F68616E63
:103AF00064736F6D650A4461746162697473203A1E
:103B00002025640A426175645F72617465203A2001
:103B100025640A506172697479203A2025640A5339
:103B2000746F7062697473203A2025640A00000083
:103B30007C3C00000000001028000000080100008C
:103B4000A43C0000280000107804000024010000BC
:103B50001C00000043000000F8FFFFFF0C00000005
:103B60000E0000000F0000002E00000010010000F9
:103B700043000000F8FFFFFF00404040404040404D
:103B80004040414141414140404040404040404030
:103B900040404040404040404005020202020202D4
:103BA0000202020202020202022020202020202023
:103BB0002020200202020202020290909090909037
:103BC00010101010101010101010101010101010F5
:103BD0001010101002020202020288888888888869
:103BE0000808080808080808080808080808080855
:103BF000080808080202020240000000000000005D
:103C000000000000000000000000000000000000B4
:103C100000000000000000000000000000000000A4
:103C20000000000000000000000000000000000094
:103C30000000000000000000000000000000000084
:103C40000000000000000000000000000000000074
:103C50000000000000000000000000000000000064
:103C60000000000000000000000000000000000054
:103C70000000000000000000000000000000000044
:103C80000000000000000000000000000000000034
:103C90000000000000000000000000000000000024
:043CA00000E1F50545
:0400000500000215E0
:00000001FF
