:020000040000FA
:10000000600200104D010000550100005701000082
:10001000590100005B0100005D01000000000000CC
:100020000000000000000000000000005F01000070
:100030006101000000000000630100006501000094
:100040006701000067010000670100006701000010
:100050006701000067010000670100006701000000
:1000600067010000670100006701000067010000F0
:1000700067010000670100006701000067010000E0
:1000800067010000670100006701000067010000D0
:1000900067010000670100006701000067010000C0
:1000A00067010000670100006701000067010000B0
:1000B00067010000670100006701000067010000A0
:1000C00067010000670100006701000000F002F80E
:1000D00000F02CF80AA090E8000C82448344AAF1B6
:1000E0000107DA4501D100F021F8AFF2090EBAE8B4
:1000F0000F0013F0010F18BFFB1A43F0010318475C
:10010000A0040000B0040000002300240025002605
:10011000103A28BF78C1FBD8520728BF30C148BF6A
:100120000B6070471FB51FBD10B510BD00F02FF854
:100130001146FFF7F7FF00F0CDF900F04DF803B4DA
:10014000FFF7F2FF03BC00F055F8000009488047B4
:1001500009480047FEE7FEE7FEE7FEE7FEE7FEE7A9
:10016000FEE7FEE7FEE7FEE704480549034A054BC4
:100170007047000095030000CD00000060000010F3
:1001800060020010600000107047704770477546AD
:1001900000F02CF8AE4605006946534620F00700F3
:1001A000854618B020B5FFF7DFFFBDE820404FF0CF
:1001B00000064FF000074FF000084FF0000B21F051
:1001C0000701AC46ACE8C009ACE8C009ACE8C0091E
:1001D000ACE8C0098D46704710B50446AFF3008007
:1001E0002046BDE81040FFF7AABF00000048704756
:1001F0000000001001491820ABBEFEE726000200F7
:100200007047002100E0491C8142FCD3704710B5C3
:100210004FF40001002000F05AF84FF080710020E8
:1002200000F055F84FF40011012000F050F84FF4A1
:100230000061022000F04BF84FF48051022000F0E2
:1002400046F84FF40051022000F041F84FF00071E1
:10025000032000F03CF84FF08061032000F037F8F5
:1002600010BD10B52021002000F03BF82021002017
:1002700000F02DF810BD10B54FF40001002000F083
:1002800030F84FF08071002000F02BF84FF400118F
:10029000012000F026F84FF40061022000F021F860
:1002A0004FF48051022000F01CF84FF4005102205E
:1002B00000F017F84FF00071032000F012F84FF033
:1002C0008061032000F00DF8FFF7CBFF10BD70B583
:1002D00006460C46304600F02DF8054605B1EC61A7
:1002E00070BD70B506460C46304600F023F8054652
:1002F00005B1AC6170BD000000000000FFFFFFFF12
:1003000010B501220A49002000F030F80122510501
:10031000104600F02BF801224FF46051022000F04B
:1003200025F801224FF0C061032000F01FF810BD36
:10033000300CB80101460020052912D2DFE801F097
:100340000305080B0E0008480CE00748203009E0C0
:100350000548403006E00448603003E00248803041
:1003600000E000BF00BF704700C009202DE9F04148
:1003700007460D4616463846FFF7DCFF04463CB1FB
:100380001EB120682843206002E02068A843206056
:10039000BDE8F08120204B4908604B48D0F8A0010F
:1003A00000F0200030B100BF4648006800F0400077
:1003B0000028F9D0032043499C39086000204249B5
:1003C000C1F8A8013F490C31086001203D4994392A
:1003D00008603E483C4984310860AA203A498C3183
:1003E0000860552008600120374980310860AA2044
:1003F00035498C31086055203349C1F88C0000BF65
:1004000031488830006800F080600028F8D0032070
:100410002D4980310860AA202B49C1F88C00552055
:1004200029498C31086000BF27488830006800F0F7
:100430004070B0F1407FF7D123202349A4310860F8
:10044000AA202149C1F8AC0055201F49AC310860F1
:1004500001201D49A0310860AA201B49AC31086069
:1004600055201949C1F8AC0000BF1748A8300068F2
:1004700000F480600028F8D003201349A031086000
:10048000AA201149C1F8AC0055200F49AC310860D1
:1004900000BF0D48A830006800F44070B0F5407F00
:1004A000F7D10B480849C431086000200649C1F85B
:1004B000C8010846006820F4704040F4804008609D
:1004C00070470000A0C10F4000C00F40630005004E
:1004D000DE872804FFF714FF00BF00BF5BE0FFF7D3
:1004E00096FE4FF400010020FFF7FBFE2A4840690A
:1004F00040F48060284948610846406920F48060E3
:100500004861FFF7B8FE4FF080710020FFF7DFFE73
:100510004FF400110120FFF7DAFE20210020FFF741
:10052000E0FE20210020FFF7D2FE1C48FFF769FE05
:10053000FFF76DFE4FF080710020FFF7D2FE1648E6
:10054000406940F48060144948610846406920F4DD
:1005500080604861FFF78FFE4FF0C0710020FFF709
:10056000B6FE4FF400110120FFF7B1FE4FF4005129
:100570000220FFF7ACFE4FF000710320FFF7A7FE4B
:1005800020210020FFF7ADFE20210020FFF79FFE75
:100590000248FFF736FEA2E700C00920801A0600D5
:1005A000B00500000000001060020000080100001B
:040000050000014DA9
:00000001FF
