:020000040000FA
:100000006802001069010000710100007301000026
:100010007501000077010000790100000000000078
:100020000000000000000000000000007B01000054
:100030007D010000000000007F0100008101000040
:1000400083010000830100008301000083010000A0
:100050008301000083010000830100008301000090
:100060008301000083010000830100008301000080
:100070008301000083010000830100008301000070
:100080008301000083010000830100008301000060
:1000900083010000830100000105000083010000CE
:1000A0008301000083010000830100008301000040
:1000B0008301000083010000830100008301000030
:1000C00083010000830100008301000000F002F8BA
:1000D00000F03AF80AA090E8000C82448344AAF1A8
:1000E0000107DA4501D100F02FF8AFF2090EBAE8A6
:1000F0000F0013F0010F18BFFB1A43F0010318475C
:10010000CC110000EC110000103A24BF78C878C16F
:10011000FAD8520724BF30C830C144BF04680C600D
:10012000704700000023002400250026103A28BF55
:1001300078C1FBD8520728BF30C148BF0B60704759
:100140001FB51FBD10B510BD00F0DAF81146FFF75E
:10015000F7FF00F0AFFE00F0F8F803B4FFF7F2FF8E
:1001600003BC00F0FFF80000094880470948004739
:10017000FEE7FEE7FEE7FEE7FEE7FEE7FEE7FEE757
:10018000FEE7FEE704480549034A054B70470000B7
:1001900029080000CD00000068000010680200106F
:1001A0006800001053EA020C00F069802DE9F04B62
:1001B0004FF00006002B1FBFB3FA83F503FA05F4D6
:1001C00024FA05F65E4012BF1643B2FA82F502FA2F
:1001D00005F4C5F120051EBF22FA05FC44EA0C0413
:1001E000203556EA044C4FEA144418BF641C4FF003
:1001F00000084FF00009904271EB030C39D300293D
:1002000019BFB1FA81F701FA07F6B0FA80F700FAE0
:1002100007F6C7F120071EBF20FA07FC46EA0C06C6
:100220002037B6FBF4FCA7EB0507103F07F01F0BC8
:10023000CBF120060CFA0BFB2CFA06F644BFB346B2
:100240000026202FA4BF5E464FF0000B5BEA060C91
:1002500008BF4FF0010B19EB0B09ABFB027C48EB1D
:100260000608C01B06FB02CC0BFB03CC71EB0C0198
:10027000C1E70B46024641464846BDE8F08B13B540
:100280004FF000004FF00001AFF30080BDE81C40CC
:10029000704710B5203AC0F00B80B1E81850203AF2
:1002A000A0E81850B1E81850A0E81850BFF4F5AF16
:1002B0005FEA027C24BFB1E81850A0E8185044BFA0
:1002C00018C918C0BDE810405FEA827C24BF51F80D
:1002D000043B40F8043B08BF7047D20728BF31F801
:1002E000023B48BF11F8012B28BF20F8023B48BF52
:1002F00000F8012B7047704770477047FFFFFFFF02
:10030000754600F02BF8AE4605006946534620F0CE
:100310000700854618B020B5FFF734FFBDE8204040
:100320004FF000064FF000074FF000084FF0000BB1
:1003300021F00701AC46ACE8C009ACE8C009ACE864
:10034000C009ACE8C0098D46704710B50446AFF34C
:1003500000802046BDE81040FFF7FFBE0048704710
:100360000800001001491820ABBEFEE7260002007D
:100370007047000070B504460D461646104884428A
:1003800000D103E0F7210FA000F092FD05B100BFFE
:1003900000BF012E05D120680121A940084320603B
:1003A0000CE0206800F0E06018B1206820F0E06008
:1003B000206020680121A9408843206070BD0000B2
:1003C000004003402E2E5C4875696E735F4E585096
:1003D0005F4C5043313736385F4C696272617279D5
:1003E0005C447269766572735C736F757263655C89
:1003F0006C7063313778785F6164632E630000004E
:1004000070B504460D460948844200D104E040F22C
:100410000D1107A000F04CFD05B100BF00BF04F1B5
:10042000100050F82560C6F30B1070BD004003406B
:100430002E2E5C4875696E735F4E58505F4C50436A
:10044000313736385F4C6962726172795C44726927
:10045000766572735C736F757263655C6C70633123
:100460003778785F6164632E630000002DE9F04106
:1004700007460E4614461248874200D104E040F277
:10048000211110A000F014FD06B100BF00BF0CB197
:10049000012C00D104E040F223110AA000F008FD75
:1004A00007F1100050F8265014B105F0004501E0A6
:1004B00005F0804515B10120BDE8F0810020FBE783
:1004C000004003402E2E5C4875696E735F4E585095
:1004D0005F4C5043313736385F4C696272617279D4
:1004E0005C447269766572735C736F757263655C88
:1004F0006C7063313778785F6164632E630000004D
:1005000010B5012202210F48FFF7B0FFC8B1002249
:1005100002210C48FFF72EFF02210A48FFF770FF67
:1005200009490880162001218140084A430942F800
:10053000231000BF00F05AF9012202210148FFF701
:1005400019FF10BD004003400000001080E100E0F2
:100550002DE9F04104460D461548844200D103E0E0
:10056000482114A000F0A4FC1DB12148854200D808
:1005700003E049210FA000F09BFC0121080300F0DB
:10058000DFF8002020604FF40018182000F0F4F885
:10059000064605EB851707EB46007900B0FBF1F046
:1005A000471E48EA0728C4F80080BDE8F081000033
:1005B000004003402E2E5C4875696E735F4E5850A4
:1005C0005F4C5043313736385F4C696272617279E3
:1005D0005C447269766572735C736F757263655C97
:1005E0006C7063313778785F6164632E630000005C
:1005F000400D030070B505460C461646144885426A
:1006000000D103E0E42113A000F052FC7CB1012CE6
:100610000DD0022C0BD0032C09D0042C07D0052CB4
:1006200005D0062C03D0072C01D0082C00D103E004
:10063000E52108A000F03CFCE8680121A1408843C6
:10064000E86026B1E9680120A0400143E96070BD7F
:10065000004003402E2E5C4875696E735F4E585003
:100660005F4C5043313736385F4C69627261727942
:100670005C447269766572735C736F757263655CF6
:100680006C7063313778785F6164632E63000000BB
:1006900070B505460C461248854200D103E095210D
:1006A00010A000F005FC6CB1012C0BD0022C09D07D
:1006B000032C07D0042C05D0052C03D0062C01D028
:1006C000072C00D103E0962106A000F0F1FB28687A
:1006D00020F0E0602860286840EA0460286070BD6F
:1006E000004003402E2E5C4875696E735F4E585073
:1006F0005F4C5043313736385F4C696272617279B2
:100700005C447269766572735C736F757263655C65
:100710006C7063313778785F6164632E630000002A
:100720007CB506460C4615468DF80060E0B28DF8A3
:1007300001008DF80250684600F063F87CBD0000AF
:10074000012909D10A4A12680A4B03401A43084B8F
:10075000C43BC3F8C42009E041B9054A1268054BFF
:1007600083431A40024BC43BC3F8C42070470000C7
:10077000C4C00F40DEF7EFEF70B506460D480468C1
:10078000304600F019F8054635B1012D06D0022D8E
:1007900006D0032D08D105E0042505E0012503E07E
:1007A000022501E0082500BF00BFB4FBF5F4204698
:1007B00070BD0000040000100146202903D20A4643
:1007C000064B186804E0A1F12002044B1B1D1868B9
:1007D00020FA02F303F0030070470000A8C10F40A5
:1007E000002100E0491C8142FCD3704700F01F0249
:1007F000012191404209920002F1E022C2F8001169
:10080000704710B50446A2786178207800F0C0FBEC
:10081000E2786178207800F0DBFB2279617820783B
:1008200000F09EFB10BD000020204B4908604B48A3
:10083000D0F8A00100F0200030B100BF46480068A9
:1008400000F040000028F9D0032043499C3908609B
:1008500000204249C1F8A8013F490C31086001203D
:100860003D49943908603E483C4984310860AA20DB
:100870003A498C31086055200860012037498031A1
:100880000860AA2035498C31086055203349C1F8E9
:100890008C0000BF31488830006800F0806000287C
:1008A000F8D003202D4980310860AA202B49C1F8D7
:1008B0008C00552029498C31086000BF27488830BA
:1008C000006800F04070B0F1407FF7D12320234949
:1008D000A4310860AA202149C1F8AC0055201F4965
:1008E000AC31086001201D49A0310860AA201B49D5
:1008F000AC31086055201949C1F8AC0000BF174859
:10090000A830006800F480600028F8D00320134964
:10091000A0310860AA201149C1F8AC0055200F4948
:10092000AC31086000BF0D48A830006800F440708A
:10093000B0F5407FF7D10B480849C431086000206A
:100940000649C1F8C8010846006820F4704040F428
:100950008040086070470000A0C10F4000C00F40F9
:1009600063000500DE87280413B5044601231A46F8
:1009700001A9204600F084F91CBD2DE9F047054689
:100980000C460A2094FBF0F100FB1140C6B20A208D
:1009900094FBF0F00A2190FBF1F201FB1200C7B2C8
:1009A000642094FBF0F090FBF1F201FB120000F0E8
:1009B000FF084FF47A7094FBF0F090FBF1F201FB2A
:1009C000120000F0FF0942F2107094FBF0F090FB6F
:1009D000F1F201FB120000F0FF0A0AF13000C1B28F
:1009E0002846FFF7C1FF09F13000C1B22846FFF7E2
:1009F000BBFF08F13000C1B22846FFF7B5FF07F191
:100A00003000C1B22846FFF7AFFF06F13000C1B297
:100A10002846FFF7A9FFBDE8F08770B506460D46EA
:100A20002C4604E014F8011B3046FFF79DFF2078A8
:100A30000028F7D170BD4FF4E1310160032141710D
:100A4000002101718171704770B504460D467948E7
:100A5000844208D07848844205D07848844202D045
:100A60007748844200D103E0D12176A000F020FA3B
:100A7000687940B16879012805D06879022802D0E8
:100A80006879032800D103E0D2216EA000F010FAAB
:100A9000A87910B1A879012800D103E0D32169A079
:100AA00000F006FA287958B12879012808D0287969
:100AB000022805D02879032802D02879042800D1FB
:100AC00003E0D4215FA000F0F3F95A48844203D137
:100AD00001210820FFF734FE5748844203D1012149
:100AE0001020FFF72DFE5548844203D1012108064E
:100AF000FFF726FE5248844203D101214806FFF742
:100B00001FFE4D48844223D107202072002020720E
:100B100000E02678207D00F001000028F9D1802037
:100B200084F8300000BF207D00F020000028FAD0BB
:100B3000002084F83000606020732062207484F804
:100B40004C0084F8540084F85000267E267D1AE07C
:100B5000072020720020207200E02678207D00F01F
:100B600001000028F9D1802084F8300000BF207DEA
:100B700000F020000028FAD0002084F830006060E7
:100B800020732062267D2E48844202D1002084F802
:100B900024002046296800F03BFA2748844203D10C
:100BA000207B00F0C00602E0207B00F0C0066879E0
:100BB00030B1012806D0022807D0032808D108E068
:100BC00000BF09E046F0010606E046F0020603E039
:100BD00000BF46F0030600BF00BF2879C0B146F051
:100BE00008062879012806D0022806D0032807D055
:100BF00004280BD107E000BF09E046F0100606E02C
:100C000046F0200603E046F0300600E000BF00BFDB
:100C1000A87928B1012802D146F0040601E000BFFE
:100C200000BF00BF0448844201D1267300E0267350
:100C300070BD000000C0004000000140008009407D
:100C400000C009402E2E5C4875696E735F4E585087
:100C50005F4C5043313736385F4C6962726172794C
:100C60005C447269766572735C736F757263655C00
:100C70006C7063313778785F756172742E63000031
:100C80002DE9FF5F80468A46934657465C460398A7
:100C9000012825D1002520E04FF0FF3905E0B9F10A
:100CA000000F00D107E0A9F1010998F8140000F045
:100CB00020000028F3D000BFB9F1000F00D10EE0F2
:100CC000102607E017F8011B404600F025F8761EB5
:100CD000641E6D1C0EB1002CF4D1002CDCD117E089
:100CE000002512E098F8140000F0200000B90EE092
:100CF000102607E017F8011B404600F00DF8641EAF
:100D0000761E6D1C0EB1002CF4D1002CEAD100BF70
:100D1000284604B0BDE8F09F70B504460D460C4867
:100D2000844208D00B48844205D00B48844202D04C
:100D30000A48844200D104E040F2E11108A000F02A
:100D4000B7F80448844201D1257000E0257070BDD9
:100D500000C00040000001400080094000C0094080
:100D60002E2E5C4875696E735F4E58505F4C504331
:100D7000313736385F4C6962726172795C447269EE
:100D8000766572735C736F757263655C6C706331EA
:100D90003778785F756172742E63000070B5044611
:100DA0000D461E48844208D01D48844205D01D4887
:100DB000844202D01C48844200D104E040F2F23167
:100DC0001AA000F075F80DB1012D00D104E040F239
:100DD000F33116A000F06CF8012D10D110488442B8
:100DE00006D194F8300040F0800084F8300014E020
:100DF00094F8300040F0800084F830000DE008489E
:100E0000844205D194F83000002084F8300004E0DA
:100E100094F83000002084F8300070BD00C000401D
:100E2000000001400080094000C009402E2E5C48AF
:100E300075696E735F4E58505F4C5043313736388A
:100E40005F4C6962726172795C4472697665727333
:100E50005C736F757263655C6C7063313778785F53
:100E6000756172742E6300001CB5012202210020FE
:100E7000FFF756FC012203210020FFF751FC6846D2
:100E8000FFF7D9FD4FF4E130009003208DF8050005
:100E900000208DF804008DF8060069460348FFF72E
:100EA000D3FD01210148FFF779FF1CBD00C00040C0
:100EB00000BFFEE7B8B0DC221B4901A8FFF7E9F943
:100EC000FFF7D2FF01A91948FFF7A7FD0122192159
:100ED0000020FFF725FC16491648FFF739FB0122D1
:100EE00002211448FFF786FB012202211148FFF777
:100EF00041FA1620FFF77AFC15E001210D48FFF7B3
:100F0000C7FB0DA10948FFF788FD12480188074873
:100F1000FFF733FD10A10548FFF77FFD0F49096872
:100F20008808FFF75DFCE8E7F011000000C0004012
:100F3000400D0300004003404144432076616C753E
:100F400065206F6E206368616E6E656C20323A209A
:100F500000000000000000100D0A00000400001056
:100F600030B50B460949012A07D151F82040012527
:100F70009D402C4341F8204006E051F820400125D7
:100F80009D40AC4341F8204030BD000068C00240A5
:100F9000F0B504460B461546194660000B4A102969
:100FA00001D31039401C52F820604FEA410C03274E
:100FB00007FA0CF7BE4342F8206052F820604F0059
:100FC00005FA07F73E4342F82060F0BD00C002403A
:100FD000F0B504460B461546194660000B4A102929
:100FE00001D31039401C52F820604FEA410C03270E
:100FF00007FA0CF7BE4342F8206052F820604F0019
:1010000005FA07F73E4342F82060F0BD40C00240B9
:101010002DE9F04F8BB004468946002009907048B6
:10102000844204D10620FFF7A7FB074616E06D486F
:10103000844204D10820FFF79FFB07460EE06A4870
:10104000844204D13020FFF797FB074606E067484B
:10105000844203D13220FFF78FFB07464FF0FF3B5E
:1010600000200790069000252E464FF001084DE025
:101070000020089040E00898404400FB09FC002054
:10108000010741EA171138070022A0FB083E01FBC7
:1010900008E100FB02106246CDE900300023DDE9E3
:1010A0000001FFF77FF8CDE9040104980390DDF813
:1010B00014A00398B0F1004F04D903984042039064
:1010C0000AF1010ABAF1000F02D0BAF5803F00D947
:1010D0000FE0039858450BD2DDF80CB000265546BA
:1010E00008980790CDF81880BBF1000F00D106E0FA
:1010F00000BF0898401C089008984045BBD300BF2B
:10110000BBF1000F00D104E008F10108B8F10F0FA6
:10111000AED900BF002185EA01007140084302D129
:101120000BB0BDE8F08F3809069900FB01FC0846BA
:10113000079908440021A0FB052301FB053100FBB2
:1011400006100346CDE9002060460021FFF72AF88B
:1011500002900298814503D90298A9EB000B02E0A6
:101160000298A0EB090B64200BFB00F0B0FBF9FB2D
:10117000BBF1030F32D21B48844216D1207B40F0D2
:1011800080002073280A40EA066020712570207BC9
:1011900000F07F002073F021069801EA0010079903
:1011A00001F00F010843A06216E0207B40F08000B0
:1011B0002073280A40EA066020712570207B00F029
:1011C0007F002073F021069801EA0010079901F0D2
:1011D0000F01084384F828000120099009989FE72F
:1011E00000C00040000001400080094000C00940EC
:1011F0002A2A2A2A2A2A2A2A2A2A2A2A2A2A2A2A4F
:101200002A2A2A2A2A2A2A2A2A2A2A2A2A2A2A2A3E
:101210002A2A2A2A2A2A2A2A2A2A2A2A2A2A2A2A2E
:101220002A2A2A2A2A2A2A2A2A0A0D09205541521C
:10123000543020496E6974202F2041444320496E68
:1012400074657272757074204578616D706C650D8F
:101250000A09202D204D43553A204C504331373652
:1012600038200D0A09202D20436F6D6D756E69635E
:10127000617465207669613A205541525430202DC1
:1012800020313135323030627073200D0A2A2A2A1B
:101290002A2A2A2A2A2A2A2A2A2A2A2A2A2A2A2AAE
:1012A0002A2A2A2A2A2A2A2A2A2A2A2A2A2A2A2A9E
:1012B0002A2A2A2A2A2A2A2A2A2A2A2A2A2A2A2A8E
:1012C0002A2A2A2A2A2A0A0D00000000EC1200000D
:1012D000000000100800000008010000F4120000E7
:1012E000080000106002000024010000000000005F
:0412F00000E1F5051F
:04000005000001698D
:00000001FF
