:020000040000FA
:100000006802001069010000710100007301000026
:100010007501000077010000790100000000000078
:100020000000000000000000000000007B01000054
:100030007D010000000000007F0100008101000040
:1000400083010000830100008301000083010000A0
:100050008301000083010000830100008301000090
:100060008301000083010000830100008301000080
:100070008301000083010000830100008301000070
:100080008301000083010000830100008301000060
:100090008301000083010000830100008301000050
:1000A0008301000083010000830100008301000040
:1000B0008301000083010000830100008301000030
:1000C00083010000830100008301000000F002F8BA
:1000D00000F03AF80AA090E8000C82448344AAF1A8
:1000E0000107DA4501D100F02FF8AFF2090EBAE8A6
:1000F0000F0013F0010F18BFFB1A43F0010318475C
:10010000C0040000E0040000103A24BF78C878C1A1
:10011000FAD8520724BF30C830C144BF04680C600D
:10012000704700000023002400250026103A28BF55
:1001300078C1FBD8520728BF30C148BF0B60704759
:100140001FB51FBD10B510BD00F02FF81146FFF709
:10015000F7FF00F0AFF800F04DF803B4FFF7F2FF3F
:1001600003BC00F055F800000948804709480047E3
:10017000FEE7FEE7FEE7FEE7FEE7FEE7FEE7FEE757
:10018000FEE7FEE704480549034A054B70470000B7
:1001900081040000CD00000068000010680200101B
:1001A00068000010704770477047754600F02CF8E3
:1001B000AE4605006946534620F00700854618B054
:1001C00020B5FFF7DFFFBDE820404FF000064FF0FD
:1001D00000074FF000084FF0000B21F00701AC467C
:1001E000ACE8C009ACE8C009ACE8C009ACE8C0099B
:1001F0008D46704710B50446AFF300802046BDE839
:100200001040FFF7AABF000000487047040000102C
:1002100001491820ABBEFEE726000200704700210E
:1002200000E0491C8142FCD3704770B506460C467D
:10023000304600F005F8054605B1EC6170BD0000E0
:1002400001460020052912D2DFE801F00305080B62
:100250000E0008480CE00748203009E0054840300F
:1002600006E00448603003E00248803000E000BF50
:1002700000BF704700C009202DE9F04107460D4638
:1002800016463846FFF7DCFF04463CB11EB1206835
:100290002843206002E02068A8432060BDE8F08188
:1002A00070B506460C463046FFF7CAFF054605B155
:1002B000AC6170BD092000F06DF80DE000F045F86C
:1002C000064909688808FFF7AAFF00F019F80349F2
:1002D00009688808FFF7A3FFF0E70000000000109E
:1002E000000000000000000000000000000000000E
:1002F000000000000000000000000000FFFFFFFF02
:1003000010B54FF080510120FFF78FFF4FF00051E3
:100310000120FFF78AFF4FF000410120FFF785FF22
:1003200004210220FFF781FF08210220FFF77DFF53
:1003300010210220FFF779FF20210220FFF775FF2F
:1003400040210220FFF771FF10BD10B54FF0805122
:100350000120FFF7A5FF4FF000510120FFF7A0FF9C
:100360004FF000410120FFF79BFF04210220FFF71F
:1003700097FF08210220FFF793FF10210220FFF7CB
:100380008FFF20210220FFF78BFF40210220FFF783
:1003900087FF10BD10B504460A2C6ED2DFE804F0CA
:1003A0006D05101B26303A444E58012211071046A5
:1003B000FFF762FF4FF080510120FFF736FF5CE04E
:1003C000012251071046FFF757FF4FF0005101205F
:1003D000FFF72BFF51E00122D1071046FFF74CFF3A
:1003E0004FF000410120FFF720FF46E001220421E9
:1003F0000220FFF741FF04210220FFF716FF3CE037
:10040000012208210220FFF737FF08210220FFF711
:100410000CFF32E0012210210220FFF72DFF1021F6
:100420000220FFF702FF28E0012220210220FFF72F
:1004300023FF20210220FFF7F8FE1EE001224021C9
:100440000220FFF719FF40210220FFF7EEFE14E023
:1004500001224FF030411046FFF70EFF01227C21B0
:100460000220FFF709FF4FF030410120FFF7DDFECA
:100470007C210220FFF7D9FE00BF00BF10BD0000A5
:1004800020204B4908604B48D0F8A00100F0200024
:1004900030B100BF4648006800F040000028F9D0A5
:1004A000032043499C39086000204249C1F8A80153
:1004B0003F490C31086001203D49943908603E48AD
:1004C0003C4984310860AA203A498C3108605520A3
:1004D00008600120374980310860AA2035498C31F5
:1004E000086055203349C1F88C0000BF314888307E
:1004F000006800F080600028F8D003202D4980318A
:100500000860AA202B49C1F88C00552029498C315C
:10051000086000BF27488830006800F04070B0F1E4
:10052000407FF7D123202349A4310860AA20214924
:10053000C1F8AC0055201F49AC31086001201D49AD
:10054000A0310860AA201B49AC3108605520194928
:10055000C1F8AC0000BF1748A830006800F4806004
:100560000028F8D003201349A0310860AA201149BF
:10057000C1F8AC0055200F49AC31086000BF0D48F0
:10058000A830006800F44070B0F5407FF7D10B4808
:100590000849C431086000200649C1F8C80108466E
:1005A000006820F4704040F480400860704700000C
:1005B000A0C10F4000C00F4063000500DE87280483
:1005C000E005000000000010040000000801000029
:1005D000E405000004000010640200002401000093
:0405E00000E1F5053C
:04000005000001698D
:00000001FF
