:020000040000FA
:10000000800200106901000071010000730100000E
:100010007501000077010000790100000000000078
:100020000000000000000000000000007B01000054
:100030007D010000000000007F0100008101000040
:1000400083010000C5070000830100008301000058
:100050008301000083010000830100008301000090
:100060008301000083010000830100008301000080
:100070008301000083010000830100008301000070
:100080008301000083010000830100008301000060
:100090008301000083010000830100008301000050
:1000A0008301000083010000830100008301000040
:1000B0008301000083010000830100008301000030
:1000C00083010000830100008301000000F002F8BA
:1000D00000F03AF80AA090E8000C82448344AAF1A8
:1000E0000107DA4501D100F02FF8AFF2090EBAE8A6
:1000F0000F0013F0010F18BFFB1A43F0010318475C
:10010000C00B0000E00B0000103A24BF78C878C193
:10011000FAD8520724BF30C830C144BF04680C600D
:10012000704700000023002400250026103A28BF55
:1001300078C1FBD8520728BF30C148BF0B60704759
:100140001FB51FBD10B510BD00F0A6F81146FFF792
:10015000F7FF00F085FD00F0C4F803B4FFF7F2FFED
:1001600003BC00F0CDF8000009488047094800476B
:10017000FEE7FEE7FEE7FEE7FEE7FEE7FEE7FEE757
:10018000FEE7FEE704480549034A054B70470000B7
:1001900059060000CD000000800000108002001011
:1001A0008000001053EA020C00F069802DE9F04B4A
:1001B0004FF00006002B1FBFB3FA83F503FA05F4D6
:1001C00024FA05F65E4012BF1643B2FA82F502FA2F
:1001D00005F4C5F120051EBF22FA05FC44EA0C0413
:1001E000203556EA044C4FEA144418BF641C4FF003
:1001F00000084FF00009904271EB030C39D300293D
:1002000019BFB1FA81F701FA07F6B0FA80F700FAE0
:1002100007F6C7F120071EBF20FA07FC46EA0C06C6
:100220002037B6FBF4FCA7EB0507103F07F01F0BC8
:10023000CBF120060CFA0BFB2CFA06F644BFB346B2
:100240000026202FA4BF5E464FF0000B5BEA060C91
:1002500008BF4FF0010B19EB0B09ABFB027C48EB1D
:100260000608C01B06FB02CC0BFB03CC71EB0C0198
:10027000C1E70B46024641464846BDE8F08B13B540
:100280004FF000004FF00001AFF30080BDE81C40CC
:100290007047704770477047754600F02BF8AE46C0
:1002A00005006946534620F00700854618B020B582
:1002B000FFF768FFBDE820404FF000064FF0000751
:1002C0004FF000084FF0000B21F00701AC46ACE8FE
:1002D000C009ACE8C009ACE8C009ACE8C0098D466B
:1002E000704710B50446AFF300802046BDE81040CB
:1002F000FFF733BF004870471C000010FFFFFFFFEF
:1003000001491820ABBEFEE726000200704700003E
:10031000012909D10A4A12680A4B03401A43084BC3
:10032000C43BC3F8C42009E041B9054A1268054B33
:1003300083431A40024BC43BC3F8C42070470000FB
:10034000C4C00F40DEF7EFEF70B506460D480468F5
:10035000304600F019F8054635B1012D06D0022DC2
:1003600006D0032D08D105E0042505E0012503E0B2
:10037000022501E0082500BF00BFB4FBF5F42046CC
:1003800070BD00000C0000100146202903D20A466F
:10039000064B186804E0A1F12002044B1B1D1868ED
:1003A00020FA02F303F0030070470000A8C10F40D9
:1003B00010B50A46202801D2034601E0A0F120032F
:1003C0001946202810D2124B1B6803248C40A343EB
:1003D000104CC4F8A8310E4B1B6802FA01F42343F9
:1003E0000C4CC4F8A83111E0094B1B1D1B680324F9
:1003F0008C40A343074CC4F8AC31054B1B1D1B6854
:1004000002FA01F42343034CC4F8AC3110BD0000E0
:10041000A8C10F4000C00F4070B506460C463046DC
:1004200000F004F8054605B1EC6170BD01460020FE
:10043000052912D2DFE801F00305080B0E00084879
:100440000CE00748203009E00548403006E0044849
:10045000603003E00248803000E000BF00BF70471A
:1004600000C009202DE9F04107460D4616463846E2
:10047000FFF7DCFF04463CB11EB120682843206032
:1004800002E02068A8432060BDE8F08170B5064610
:100490000C463046FFF7CAFF054605B1AC6170BD9A
:1004A00010B54FF080510120FFF7B6FF4FF000511B
:1004B0000120FFF7B1FF4FF000410120FFF7ACFF33
:1004C00004210220FFF7A8FF08210220FFF7A4FF64
:1004D00010210220FFF7A0FF20210220FFF79CFF40
:1004E00040210220FFF798FF10BD10B504460A2CEA
:1004F0006ED2DFE804F06D05101B26303A444E58EA
:10050000012211071046FFF7ADFF4FF08051012087
:10051000FFF782FF5CE0012251071046FFF7A2FFC0
:100520004FF000510120FFF777FF51E00122D10782
:100530001046FFF797FF4FF000410120FFF76CFFD7
:1005400046E0012204210220FFF78CFF0421022053
:10055000FFF762FF3CE0012208210220FFF782FF43
:1005600008210220FFF758FF32E00122102102206B
:10057000FFF778FF10210220FFF74EFF28E001224D
:1005800020210220FFF76EFF20210220FFF744FF09
:100590001EE0012240210220FFF764FF40210220DB
:1005A000FFF73AFF14E001224FF030411046FFF709
:1005B00059FF01227C210220FFF754FF4FF0304108
:1005C0000120FFF729FF7C210220FFF725FF00BF54
:1005D00000BF10BD10B504460A2C3BD2DFE804F082
:1005E0003A050B11171C21262B304FF080510120AA
:1005F000FFF74CFF2EE04FF000510120FFF746FFC0
:1006000028E04FF000410120FFF740FF22E00421E5
:100610000220FFF73BFF1DE008210220FFF736FF15
:1006200018E010210220FFF731FF13E02021022003
:10063000FFF72CFF0EE040210220FFF727FF09E023
:100640004FF030410120FFF721FF7C210220FFF70E
:100650001DFF00BF00BF10BD20204B4908604B4864
:10066000D0F8A00100F0200030B100BF464800687B
:1006700000F040000028F9D0032043499C3908606D
:1006800000204249C1F8A8013F490C31086001200F
:100690003D49943908603E483C4984310860AA20AD
:1006A0003A498C3108605520086001203749803173
:1006B0000860AA2035498C31086055203349C1F8BB
:1006C0008C0000BF31488830006800F0806000284E
:1006D000F8D003202D4980310860AA202B49C1F8A9
:1006E0008C00552029498C31086000BF274888308C
:1006F000006800F04070B0F1407FF7D1232023491B
:10070000A4310860AA202149C1F8AC0055201F4936
:10071000AC31086001201D49A0310860AA201B49A6
:10072000AC31086055201949C1F8AC0000BF17482A
:10073000A830006800F480600028F8D00320134936
:10074000A0310860AA201149C1F8AC0055200F491A
:10075000AC31086000BF0D48A830006800F440705C
:10076000B0F5407FF7D10B480849C431086000203C
:100770000649C1F8C8010846006820F4704040F4FA
:100780008040086070470000A0C10F4000C00F40CB
:1007900063000500DE8728040120084908706420F2
:1007A000486000200649087001204870C870002089
:1007B0008870087142F21070886070470400001061
:1007C0001000001010B500214FF0402000F00CF890
:1007D00004480078FFF7FEFE02480078401C0149FB
:1007E000087010BD0000001070B505460C46B5F14C
:1007F000402F08D01048854205D01048854202D0CD
:100800000F48854200D103E0E3210EA000F0CAF9B1
:100810004CB1012C07D0022C05D0032C03D0042CA2
:1008200001D0052C00D103E0E42106A000F0BAF9C4
:100830000120A040286070BD0080004000000940F9
:10084000004009402E2E5C4875696E735F4E58500B
:100850005F4C5043313736385F4C69627261727950
:100860005C447269766572735C736F757263655C04
:100870006C7063313778785F74696D65722E6300D0
:1008800070B504460D46B4F1402F08D00D4884429F
:1008900005D00D48844202D00C48844200D104E0C7
:1008A0004FF4D0710AA000F07DF9012D04D16068E9
:1008B00040F00100606003E0606820F001006060CB
:1008C00070BD000000800040000009400040094069
:1008D0002E2E5C4875696E735F4E58505F4C5043C6
:1008E000313736385F4C6962726172795C44726983
:1008F000766572735C736F757263655C6C7063317F
:100900003778785F74696D65722E630070B5044640
:100910000D46B4F1402F08D03A48844205D03A48F9
:10092000844202D03948844200D104E040F2D71119
:1009300037A000F037F9287940B12879012805D08F
:100940002879022802D02879032800D104E04FF446
:10095000EC712FA000F026F9287830B1012807D0DB
:10096000022808D003280CD108E0A868A0610AE09A
:10097000A868E06107E0A868206204E0A8686062F7
:1009800001E000BFFEE700BF6069297801EB41028A
:100990000721914088436061687838B1606929789F
:1009A00001EB41020121914008436061E87840B1C8
:1009B0006069297801EB4101491C01228A401043FA
:1009C0006061A87840B16069297801EB4101891C18
:1009D00001228A4010436061E06B2978042202EB17
:1009E0004102032191408843E063287900F003002D
:1009F0002978042202EB41018840E16B0843E0635F
:100A000070BD000000800040000009400040094027
:100A10002E2E5C4875696E735F4E58505F4C504384
:100A2000313736385F4C6962726172795C44726941
:100A3000766572735C736F757263655C6C7063313D
:100A40003778785F74696D65722E63002DE9F04721
:100A500004460D461646B4F1402F08D03F48844264
:100A600005D03F48844202D03E48844200D104E091
:100A700040F231113CA000F095F81DB1012D01D0DC
:100A800000D000D104E04FF4997137A000F08AF84B
:100A9000B4F1402F08D101210220FFF739FC0021D9
:100AA0000220FFF785FC22E02C48844208D1012176
:100AB0000420FFF72DFC00210420FFF779FC16E04D
:100AC0002748844208D101218805FFF721FC002135
:100AD0002C20FFF76DFC0AE02248844207D1012157
:100AE000C805FFF715FC00212E20FFF761FCA06A66
:100AF00020F00300A062A06AA0620020A060206134
:100B0000E060606840F002006060606820F0020011
:100B1000606085B93746387818B97868401EE0605B
:100B200017E0204600F040F88146796800F05AF856
:100B3000401EE0600DE0B046A06A20F00C00A0620C
:100B4000464698F80100012803D1A06A40F004004D
:100B5000A0624FF0FF302060BDE8F08700800040C9
:100B600000000940004009402E2E5C4875696E73F4
:100B70005F4E58505F4C5043313736385F4C696296
:100B8000726172795C447269766572735C736F75B9
:100B90007263655C6C7063313778785F74696D651A
:100BA000722E630000BFFEE701464FF0FF30B1F147
:100BB000402F01D100200DE0074A914201D10120D0
:100BC00008E0064A914201D1022003E0044A914222
:100BD00000D1032070470000008000400000094061
:100BE000004009402DE9F04781460C46484600F098
:100BF00015F80026054600232946A1FB047C06FBC8
:100C000004C205FB0321044A3846FFF7CBFA054628
:100C10002846BDE8F087000040420F0070B5054649
:100C200035B1012D09D0022D0CD0032D14D10EE0C9
:100C30000220FFF789FB04460EE00420FFF784FB47
:100C4000044609E02C20FFF77FFB044604E02E2039
:100C5000FFF77AFB044600BF00BF204670BD0000CE
:100C60000920FFF742FCFFF797FD124A00214FF0E1
:100C70004020FFF7EBFE10494FF04020FFF746FE03
:100C80000120012181404209920002F1E022C2F8D4
:100C9000001100BF01214FF04020FFF7F1FD08E0F7
:100CA00006480078092804DDFFF7FAFB0120034914
:100CB0000870F5E70400001010000010000000109C
:100CC000E00C00000000001010000000080100000F
:100CD000F00C000010000010700200002401000061
:100CE00000000000000000000000000000E1F50529
:04000005000001698D
:00000001FF
