:020000040000FA
:1000000078020010150200001D0200001F0200000F
:100010002102000023020000250200000000000071
:1000200000000000000000000000000027020000A7
:1000300029020000000000002B0200002D02000039
:100040002F0200002F0200002F0200002F020000EC
:100050002F020000912200002F0200002F0200005A
:100060002F0200002F0200002F0200002F020000CC
:100070002F0200002F0200002F0200002F020000BC
:100080002F0200002F0200002F0200002F020000AC
:100090002F0200002F0200002F0200002F0200009C
:1000A0002F0200002F0200002F0200002F0200008C
:1000B0002F0200002F0200002F0200002F0200007C
:1000C0002F0200002F0200002F02000000F002F8B3
:1000D00000F090F80AA090E8000C82448344AAF152
:1000E0000107DA4501D100F085F8AFF2090EBAE850
:1000F0000F0013F0010F18BFFB1A43F0010318475C
:100100002C2D00004C2D0000103A24BF78C878C177
:10011000FAD8520724BF30C830C144BF04680C600D
:10012000704700000023002400250026103A28BF55
:1001300078C1FBD8520728BF30C148BF0B60704759
:100140006E2900F0E181702900F01D83662902F01C
:10015000EB85652902F0E885672902F0E5856129CC
:1001600002F0E48503681B0A28BF41F08001692979
:1001700000F08E81642900F08B81752900F0888160
:100180006F2900F0AA82782900F0E982E92900F0BD
:100190004582E42900F04282F52900F03F82EF29F0
:1001A00000F0A782F82900F0E8820368DB0928BF85
:1001B00041F08001632900F0EB87732900F0F0879C
:1001C000E32900F0FB87F32901F00080002070474D
:1001D0001FB501F045F804000020002102F08EFD5B
:1001E000401C60600020002102F072FDE0601FBD35
:1001F00010B510BD01F00EF81146FFF7E9FF02F04F
:10020000F7FB01F0E3F803B4FFF7F2FF03BC01F0E2
:100210002BF900000948804709480047FEE7FEE740
:10022000FEE7FEE7FEE7FEE7FEE7FEE7FEE7FEE7A6
:1002300004480549034A054B70470000512100005E
:10024000CD00000078000010780200107800001047
:100250001CB50C46064B7B4469460090204600F0D6
:100260006CF904460020694600F038F820461CBDB1
:100270008300000010B5431C02E010F8011B71B1AF
:100280008107FAD14FF0013202C88C1A8C4314EA6C
:10029000C211F9D0C01A0A0603D0C01E10BDC01A80
:1002A00010BD0A0401D0801E10BD0902FCD0401E02
:1002B00010BD70477047704709684A0501D540B2C4
:1002C0007047C905FCD500B2704709684A0501D5D9
:1002D000C0B27047C905FCD580B270470A6802F801
:1002E000010B0A607047000010B500F0B9FF001D57
:1002F00010BD00BF092A000070470000FFFFFFFF8C
:1003000053EA020C00F069802DE9F04B4FF0000633
:10031000002B1FBFB3FA83F503FA05F424FA05F6A0
:100320005E4012BF1643B2FA82F502FA05F4C5F137
:1003300020051EBF22FA05FC44EA0C04203556EACB
:10034000044C4FEA144418BF641C4FF000084FF0EF
:100350000009904271EB030C39D3002919BFB1FA9F
:1003600081F701FA07F6B0FA80F700FA07F6C7F14D
:1003700020071EBF20FA07FC46EA0C062037B6FB12
:10038000F4FCA7EB0507103F07F01F0BCBF120068D
:100390000CFA0BFB2CFA06F644BFB3460026202FBE
:1003A000A4BF5E464FF0000B5BEA060C08BF4FF09F
:1003B000010B19EB0B09ABFB027C48EB0608C01BD9
:1003C00006FB02CC0BFB03CC71EB0C01C1E70B4627
:1003D000024641464846BDE8F08B13B54FF0000099
:1003E0004FF00001AFF30080BDE81C40704770B5CE
:1003F000044685690068C10601D5302600E0202644
:10040000C00707D070BDD4E9012130469047206A6B
:10041000401C20626D1EF6D570BD70B5044685691E
:100420000078C00707D170BDD4E901212020904792
:10043000206A401C20626D1EF6D570BD70B50C465A
:100440000546012A05D02878800600D5EA690023F0
:1004500002E0012305E05B1C934202D2E05C00282D
:10046000F9D1A869E618C01AA861286A1844286258
:100470002846FFF7BCFF04E0D5E9012114F8010B81
:100480009047B442F8D32846FFF7C7FF70BD00007D
:100490002DE9F0410646002410687529314616A55D
:1004A00010D0FFF709FF002802DA404213A507E049
:1004B00031688A0701D512A502E0490704D511A5C4
:1004C000012401E0FFF701FF00210A2206F12407C1
:1004D00009E0B0FBF2FCB0FBF2F302FB1C00303091
:1004E00078541846491C0028F3D123462A46304642
:1004F000BDE8F04100F05BBA000000002D000000F4
:100500002B0000002000000011680268006A5305FB
:1005100001D508700AE0D30501D5088006E013066E
:1005200003D5C217C1E9000200E00860012070474E
:1005300001694A1C02610878704700B58FB0CDE9A7
:1005400001310021059105497944CDE90310114697
:10055000684600F023F90FB000BD0000E5FFFFFF83
:100560002DE9FF5F15468A460446DFF8AC80F84463
:100570000027D8E900103E46CDE9001010E03AF817
:1005800016106A4602A800F025FE411C07D021780B
:10059000890603D5E269391891420DD80744761CC3
:1005A0002078800602D5E069B84205DDAE42E6DB80
:1005B0003AF816000028E2D1A069C01BA0612046CD
:1005C000FFF715FFD8E90010CDE90010002017E073
:1005D0003AF818106A4602A800F0FCFDB0F1FF3F9F
:1005E00081460BD000250DF1080B05E0D4E901216F
:1005F0001BF8050090476D1C4D45F7D308F101002D
:10060000B0428046E4DB206A384420622046FFF78F
:1006100004FFBDE8FF9F0000BE2700002DE9F04168
:100620008046D21D22F007020025D2E90002F529FA
:1006300015A614D0011E72F1000106DA0023D0EBDA
:10064000030063EB020211A608E0D8F800108B0744
:1006500001D50FA602E0490701D50EA601251146D6
:10066000002408F1240704E000F05CF930323A5528
:10067000641C50EA0102F7D12B463246214640461F
:10068000BDE8F04100F093B9000000002D0000002B
:100690002B0000002000000030B4002100F12404F1
:1006A00008E002F00705D208303542EA4372DB0861
:1006B0006554491C52EA0305F3D10468002310A2D3
:1006C000250707D5A40600D421B1C46901230DA2D2
:1006D000641EC46130BC00F06AB910B504462146FE
:1006E0001068FFF7F2FD02462046BDE810400023E7
:1006F000D2E7D21D22F00701D1E90023CCE70000A8
:100700000000000030000000F0B40D46018809052B
:1007100002D5214C7C4402E01F4C7C440E34002165
:1007200000F1240608E002F00F071209E75D42EA33
:1007300003721B097754491C52EA0307F3D102786C
:100740000023120704D5702D06D009B102231134FD
:100750002246F0BC00F02BB901231034F8E770B545
:1007600004460D4621461068FFF7AFFD02462946B4
:100770002046BDE870400023C6E7D21D22F00703E3
:10078000D3E90023C0E70368126843F02003036045
:100790000823C3610023B7E7202600002DE9F05F9E
:1007A000894604464FF0000ADFF874B1FB44C0F8F4
:1007B00020A02046E1688847002874D0252806D06C
:1007C000D4E901219047206A401C2062F1E700260D
:1007D0005F462046E16888472028054607DB312D23
:1007E00005D2781910F8200C08B10643F1E7B007DC
:1007F00001D526F00406C4F81CA00027C4F818A0F0
:100800002A2D09D0284602F0BFF838B304EB870838
:10081000303DC8F8185019E059F8041B204604EB85
:1008200087029161E1688847012F054618D1E06988
:10083000002820DA26F020061DE0D8F8180000EB8A
:10084000800005EB40003038C8F818002046E16809
:100850008847054602F098F80028EED1012F0AD00B
:100860002E2D08D12046E16888477F1C0546022FBF
:1008700046F02006C4DBA069002803DA404246F0B7
:100880000106A061F00701D026F010066C2D0BD0F8
:10089000682D09D04C2D39D06A2D35D0742D35D026
:1008A0007A2D33D016E038E0E1682F46204688479D
:1008B000B842054609D16C2F26D04FF48060E1681C
:1008C000064320468847054604E06C2F1AD04FF4B3
:1008D000807006430DB3A5F14100192802D82035D8
:1008E00046F400664A462946204626604E46FFF7F3
:1008F00027FC80B101280BD0F61D26F0070000F17F
:10090000080956E74020E4E78020D8E70020D6E732
:1009100006F104094DE7284652E7206ABDE8F09F3A
:10092000B025000030B5B0F10A024FEA900E71F127
:1009300000034EEA817EB0EB0E0061EB91014FEABD
:10094000101E4EEA017E10EB0E0041EB11114FEA32
:10095000102E4EEA016E10EB0E0041EB11214FEA12
:10096000104E4EEA014E10EB0E0041EB11414018C3
:1009700041F100014FEAD00040EA41704FEAD10155
:1009800010EB80054FEA810444EA907444EB0104C3
:100990006D1944EB0404521BA3414FF0000348BF00
:1009A0000A3200D530BD401C41F1000130BD2DE9B7
:1009B000F0470D4699469246044600F12408016826
:1009C000880604D5E06921F01001216000E00120D3
:1009D000A84201DD471B00E00027A1697A1902EB5C
:1009E0000900081AA0612078C00602D42046FFF74B
:1009F000FEFC002608E0D4E901211AF80600904721
:100A0000206A401C761C20624E45F4DB2078C0062C
:100A10000AD52046FFF7EBFC06E0D4E9012130209F
:100A20009047206A401C2062381EA7F10107F4DCC1
:100A300007E0D4E9012118F805009047206A401C1E
:100A40002062281EA5F10105F3DC2046FFF7E5FC36
:100A50002078000602D50220BDE8F0870120FBE7E0
:100A600070472DE9FF4F0C461E464FF0FF378BB005
:100A7000D2E90001DDF860800A908A46C1F30A5588
:100A800005B93D46002108464FF00000BAF1000FBD
:100A900000F4400005DA00EB80004FF4400101EA69
:100AA00050004FEA9059B9F1010F00DDB9460A989C
:100AB00050EA4A000ED044F61050A5F2FF354543E7
:100AC0002F14B8F1000F1ED07542291E1EDDC9F18A
:100AD00000021CE0B8F1010F4FF0000001D03021FE
:100AE00003E0F24305E02154401CB042FBDB3046FA
:100AF0000022002121540B99C1F80880C1E900208F
:100B00000FB0BDE8F08FBD1B6D1CDEE74A4600DA72
:100B1000694206A800F0E8FB06AB93E8070003ABC8
:100B200083E8070050460A9900F0A4FC8DE807000E
:100B3000A0F500501F3800900398002D0ADD42F206
:100B40001F014A460844002303A90390684600F0A9
:100B50000DFF09E0A0F500504A461F38002303A905
:100B60000390684600F017FF8DE807000004000CB2
:100B700003D04FF0FF30410800E01046B8F1000FFD
:100B800003D00022009215461EE0751E05D4FFF723
:100B9000C9FE303262556D1EF9D5B34601220843B5
:100BA00002D000227F1C04E02078302801D10022EE
:100BB0007F1E002A099784D01DE0112D07DAFFF768
:100BC000B1FE303262556D1C50EA0102F5D1084386
:100BD00002D00098C8B10EE00021681E05E0235C39
:100BE000625C63542254401E491C8142F7DBAB46D1
:100BF000A81B401E0990002004F80B000B98099ACE
:100C0000C0F80880C0E9002B7AE711264FF00008F1
:100C100057E72DE9F04F88460446D21D22F0070120
:100C200091B0D1E90001CDE90A0101F099FE024637
:100C30000B98C00F01D02D2007E02068810701D557
:100C40002B2002E0202101EAC000032A099001D0F4
:100C5000072A05DB03464146204600F005FB0BE171
:100C60002078800601D5E06900E00620B8F1650F24
:100C7000814606D0B8F1660F18D0B8F1670F70D171
:100C800031E00020B9F1110F009001DB112301E0E8
:100C900009F101030AAA01A90CA8FFF7E2FEDDE9A8
:100CA0000C70002609F10105834647E001204B4600
:100CB00000904FF000470AAA01A90CA8FFF7D1FE47
:100CC000DDE90DB00C995D46002610B909F101006F
:100CD0000D18B9EB050003D4C0F1FF3609F1010589
:100CE000A5EB09002BE0B9F1010F01DA4FF0010982
:100CF0000020B9F1110F0090484601DD112300E0FA
:100D000003460AAA01A90CA8FFF7ABFEDDE90C70A7
:100D10004D4600268346207800070AD4AB4500DA0A
:100D20005D4601A8012D04DD411911F8011C30298F
:100D300007D04F4502DA17F1040F04DA012082468A
:100D40000FE06D1EEEE7002F02DCED1B3E4403E0DA
:100D5000781CA84200DD7D1CB81B00F1010A4FF091
:100D600000472078000703D4AA4501DB4FF0FF3A83
:100D70000021B7F1004F0DF143088DF8431024D046
:100D800002202B23002F01DA7F422D230A21021E8D
:100D9000A0F1010000DC5FB197FBF1FC97FBF1F2E1
:100DA00001FB1C7C17460CF1300C08F801CDEEE776
:100DB000A8F1010003702188090501D5452100E053
:100DC0006521A0F1010800F8011C09980FA9A1EB09
:100DD0000807FF1D00B10120411901EBEA70A1696C
:100DE0003844081A401EA0612078C00602D420466C
:100DF000FFF7FDFA099828B1D4E901219047206A4C
:100E0000401C20622078C00622D52046FFF7EFFA6A
:100E10001EE0002E04DBB34502DD01A8805D00E08A
:100E20003020D4E901219047206A401C2062761CC2
:100E3000AAF101005FEA000A0AD100F011FAC068C5
:100E40000168405CD4E901219047206A401C20627F
:100E5000281EA5F10105DCDC07E0D4E9012118F822
:100E6000010B9047206A401C2062381EA7F1010741
:100E7000F3DC2046FFF7D1FA032011B041E6000071
:100E80002DE9F04F04460D46D21D22F0070089B02F
:100E9000D0E900974846394601F062FD0246F80F56
:100EA00001D02D2307E02068810701D52B2302E024
:100EB000202101EAC0038DF820300BB1012000E0B1
:100EC0000020032A824601D0072A04DB2946204657
:100ED00000F0CAF93FE12078800601D40D2500E03A
:100EE000E569C7F30A560D2D49DA00214FEA175B71
:100EF00008464FF00000002F00F4400007DA00EB36
:100F000080004FF4400100EBD07001EA60008115D1
:100F1000012901DD4FF0FF3100224FEA850CBCF1C1
:100F2000180F06D31346ACF118004FF08052C240A0
:100F300003E04FF4801323FA0CF30CF10C0CBCF11A
:100F4000200F04D3ACF1200C09FA0CF001E007FAF1
:100F50000CF000294FF0004801DD18B90FE00ED168
:100F600040450CD319EB02095F4121B9404502D13C
:100F70009F4329EA0209BBEB175F00D0761C20884B
:100F8000000502D57B48784402E07A487844193855
:100F900008AA302302F80A30037C0AF10101002E6E
:100FA0000AF1020A53546A4602DC4FF0300101E0B4
:100FB0004FF031014FF001088DF8001002D0A6F279
:100FC000FF3603E059EA470100D06B4E002D02DCEA
:100FD0002178090704D54FF002082E218DF8011061
:100FE000C44600210BE0C7F303433F01C35C491C27
:100FF0006D1E02F80830052908F1010801DA002DFC
:10100000F1DC00210CE000EB1973491C1B786D1E0C
:10101000082902F808304FEA091908F1010801DA35
:10102000002DF0DC21688B0602D516E0A8F101083E
:10103000E04505DD02EB080313F8013C302BF5D049
:10104000B8F1000F09DD02EB080313F8013C2E2B69
:1010500003D1090701D4A8F10108002D05DD3E21C7
:1010600002F808106D1E08F10108407C002E02F8FD
:10107000080008F1010804DA2D20764202F8080081
:1010800002E02B2002F808000A214FF47A70864211
:1010900008F101080BDB96FBF0F3303302F808305F
:1010A00096FBF0F308F1010800FB136601E0642EE3
:1010B0000CDB642096FBF0F3303302F8083096FB2B
:1010C000F0F308F1010800FB136601E00A2E06DBCD
:1010D00096FBF1F0303002F8080008F1010896FBA9
:1010E000F1F001FB1060303002F80800A16908F14E
:1010F000010808EB050202EB0A00081AA06120783B
:10110000C00602D42046FFF772F9216A08AE01EB4F
:101110000A00206204E0D4E9012116F8010B90478F
:10112000BAF1010AF7D22078C00602D52046FFF7AF
:101130005EF96E4609E016F8010B3E280FD0D4E99F
:1011400001219047206A401C2062B8F10108F2D2C8
:101150002046FFF762F909B00320BDE8F08F206A4E
:101160002844206203E0D4E90121302090476D1E1D
:10117000EBD3F8E7FA1D000002FCFFFF10B543694E
:1011800013B1AFF3008001E0FFF758F9012010BD63
:10119000127800F124010A7000224A700122EDE762
:1011A00011684FF0FF32E9E710B5436913B1AFF3AF
:1011B000008001E0FFF7D4F9012010BD128800F192
:1011C000240182840022C2840122EDE711684FF0DD
:1011D000FF32E9E770B516460C460546FFF784F87E
:1011E000036893F80101012806D0FF2C0FD8185D81
:1011F00068B101202C7070BDD3F80701324621463A
:1012000003F2071303442846BDE8704018474FF027
:10121000FF3070BD754600F0E3F8AE460500694644
:10122000534620F00700854618B020B5FFF700F8B8
:10123000BDE820404FF000064FF000074FF00008D7
:101240004FF0000B21F00701AC46ACE8C009ACE858
:10125000C009ACE8C009ACE8C0098D467047000081
:1012600000487047380000102DE9F0411F46044641
:1012700003260168072A01F4006004DB08B116A503
:1012800005E016A503E008B115A500E015A521F0BD
:1012900010002060A069C01EA0610FB1401EA061B7
:1012A0002046FFF7A4F84FB1D4E901213846904712
:1012B000206A401C2062C01C206206E0206AFAE717
:1012C000D4E9012115F8010B9047761EF8D220468B
:1012D000FFF7A3F8BDE8F0814E414E006E616E004D
:1012E000494E4600696E66002DE9F0478146164674
:1012F0008AB0354878440DC88DE80D0032487844EE
:10130000801C03AC0DC884E80D0041F69B300844F6
:10131000372190FBF1F290FBF1F5A5F1800501FB7F
:1013200012041B3C02D56442012000E00020DFF8DB
:1013300098A080460027FA44AAF1BE0A0EE0E00712
:101340000AD03246684607EB470101230AEB8101C8
:1013500000F021FB8DE8070064107F1C002CEED10B
:10136000194F7F44AE3F19E0E80715D007EB041092
:101370000DF1180A90E80E008AE80E00C068F042ED
:1013800001D1981908903246012306A903A800F05C
:1013900002FB03AB83E807006D10641C002DE3D152
:1013A0004FF0010332466946B8F1000F03A802D09E
:1013B00000F0DCFA01E000F0EEFAC9E90001C9F83A
:1013C00008200AB0BDE8F0871C1B000010B50446D9
:1013D000AFF300802046BDE81040FEF714BF0000C8
:1013E00000487047180000104FF0013C50F8042BE3
:1013F00051F8043B9A4221D1A2EB0C03934313EA28
:10140000CC1317D150F8042B51F8043B9A4215D154
:10141000A2EB0C03934313EACC130BD150F8042B2B
:1014200051F8043B9A4209D1A2EB0C03934313EA0F
:10143000CC13DBD04FF00000704700BFD01A01BAC8
:10144000B1FA81F101F0180122FA01F0CB40C1F1AB
:101450002001DBB2C0B2C01A2CFA01F3D11A9143B9
:1014600011EAC311E6D1704701491820ABBEFEE76F
:10147000260002005FEA400C08BF91F0000F4FEA1F
:101480008C234FEAC12243EA51514FEA1C5018BF46
:1014900000F5F0404FEA300018BF41F000415FEA2C
:1014A0006C5C00F02980BCF1FF3F08BF40F0804039
:1014B0007047130C06BF12044FF0100C4FF0000CD5
:1014C000130E04BF12020CF1080C130F04BF12011B
:1014D0000CF1040C930F04BF92000CF1020CD30F1B
:1014E00004BF52000CF1010C11464FF00002A0F1B4
:1014F0001F00A0EB0C00704711F0004F08BF7047B1
:1015000031F000413FF4D5AF0B0C06BF09044FF09A
:10151000100C4FF0000C0B0E04BF09020CF1080C6C
:101520000B0F04BF09010CF1040C8B0F04BF8900E1
:101530000CF1020CCB0F04BF49000CF1010CCCF1F3
:101540002003A0EB0C0022FA03F302FA0CF241EAAA
:10155000030100F10100704720F07F4C80EA030096
:1015600023F07F47ACEB070303F57C5300F000400A
:1015700003F1FF032DE980494FEA154B09B44FEA07
:10158000144325EA0B4E24EA03480FF2042606EB27
:10159000132749083E785FEA320203FB0667C7F566
:1015A000000707FB06F64FEA54374FEAD64606F126
:1015B000020607FB066CCCF1005C4FEA1C472CEAE4
:1015C000074C07FB06F40CFB06F504EB15464FEA47
:1015D000961634BF00204FF000404FEAD13706FB8B
:1015E00007FC4FEA1C4C0CFB0BF7D21B03FB0CF760
:1015F00061EB07010CFB0EF7B0EB074072EB1742F3
:101600000CFB08F734BFA2EB0742B2EB074261EBD9
:1016100017414FEA0C444FEA910706FB07FC4FEADB
:101620001C4C0CFB0BF7B0EBC74072EB573203FBC3
:101630000CF734BFA2EBC742B2EBC74261EB5731A4
:101640000CFB0EF7B0EBC70072EB57720CFB08F700
:1016500034BFA2EBC702B2EBC70261EB5771039F25
:101660004FEA816141EA921104EBCC044FEAD13791
:101670004FEA826206FB07FC42EA90124FEA806062
:101680004FEA1C4C0CFB0BF7D21B03FB0CF761EB76
:1016900007010CFB0EF7B0EB074072EB17420CFB97
:1016A00008F734BFA2EB0742B2EB074261EB1741E8
:1016B0004FEA8C554FEA910704EB9C2406FB07FC8C
:1016C0004FEA1C4C0CFB0BF7B0EBC74072EB5732E8
:1016D00003FB0CF734BFA2EBC742B2EBC74261EB8E
:1016E00057310CFB0EF7B0EBC70072EB57720CFBD7
:1016F00008F734BFA2EBC702B2EBC70261EB577128
:1017000015EB4C254FEA816141EA92114FEA826262
:101710004FEAD13742EA901206FB07FC44F100047D
:101720004FEA80604FEA1C4C0CFB0BF7D21B03FB0B
:101730000CF761EB07010CFB0EF7B0EB074072EB07
:1017400017420CFB08F734BFA2EB0742B2EB07428B
:1017500061EB174115EB1C154FEA813141EA9241CB
:101760004FEA823242EA90424FEA80304FEA0C76EA
:1017700044F1000448EA03434EEA0B484FF0000EE0
:10178000B2EB080C71EB030724BF624639464EEBFF
:101790000E0E4FF0000B0018524149414BEB0B0B62
:1017A000B2EB080C71EB03077BF1000B24BF624620
:1017B00039464EEB0E0E4FF0000B001852414941D6
:1017C0004BEB0B0BB2EB080C71EB03077BF1000B3F
:1017D00024BF624639464EEB0E0E51EA020718BF8F
:1017E00046F0010616EB0E7655F1000254F10001A9
:1017F00003D5BDE88901BDE80088BDE88901BDE8E1
:101800000048B619524141EB0101A3F101037047B1
:1018100080807F7E7D7C7B7A79787776767574732D
:10182000727171706F6E6E6D6C6C6B6A6A696868EC
:10183000676666656464636362616160605F5F5E82
:101840005E5D5D5C5C5B5B5A5A59595858575756F8
:10185000565555555454535352525251515050505D
:101860004F4F4F4E4E4D4D4D4C4C4C4B4B4B4A4AAF
:101870004A494949484848474747474646464545F3
:10188000454444444443434343424242424141412C
:10189000002B9C4630D477002BD01CB54FEA37077D
:1018A00003B44FF010004FF01001BAF1000F06D052
:1018B000BCF1000FDCBF40F0080040F008014FF021
:1018C00000000FBCBDE810400BF1010BBBF1010F94
:1018D00008BF5FEA170722BF12F1010211F10101EF
:1018E0004FF0004143F1000300F0004043EA0000E4
:1018F0007047F9D35708D0E746EA064613F1400F80
:101900004FEA16461FDD13F1200FDFBF16430A46CC
:10191000002120335B42BED0C3F1200746EA0646D1
:1019200002FA07F74FEA164646EA0706C3F1200710
:1019300022FA03F201FA07F721FA03F14FF000034C
:1019400042EA0702A7E746EA020646EA06464FEAE7
:10195000164646EA0106BCBF46EA0646360C4FF07C
:1019600000034FF000024FF0000194E72DE9804C96
:101970009A46934670B491E8380007C831EA400CA3
:1019800048BF34EA430C03D5FFF7E6FDFFF780FFBD
:10199000F0BCBDE8008C2DE9804C9A46934670B4AB
:1019A00091E8380007C810F0804F08BF13F0804F4F
:1019B00003D100F005F8FFF76BFFF0BCBDE8008C29
:1019C00020F07F4780EA030023F07F4C07EB0C03F5
:1019D000A3F57C5300F00040A3F1FE0392F0000F4A
:1019E00000F0B38095F0000F00F077802DE90149F9
:1019F0004FEA11404FEA144621EA004800FB06FC7A
:101A000024EA064708FB06F607FB08F800FB07F781
:101A100018EB06484CEB164C4FEA124B18EB0748F4
:101A20004FEA15464CEB174022EA0B4E0BFB06FC27
:101A300025EA06470EFB06F607FB0EFE0BFB07F733
:101A40001EEB064E4CEB164C4FF000061EEB074EFD
:101A50004CEB174B18EB0B0840F1000018EB0E0B8A
:101A600058EB000840F100008F1A4FF000013CBF16
:101A7000C943661B14BFB5EB040C00213CBFC9432E
:101A8000F61B4FEA17444EEA8E0E27EA04454FEA4A
:101A90001C4704FB07622CEA074C05FB07F70CFB0D
:101AA00005F604FB0CFC16EB074642EB174216EB5F
:101AB0000C4642EB1C421BEB060658EB020241416E
:101AC00046EA9E0601D5BDE80189B619524141EBAF
:101AD0000101A3F10103BDE801894FEA14454FEA72
:101AE000114724EA054621EA074C05FB07F406FBEB
:101AF00007F70CFB06F105FB0CFC11EB074144EB6F
:101B000017444FEA124711EB0C4144EB1C4422EA04
:101B1000074C05FB07F206FB07F70CFB06F605FB77
:101B20000CFC16EB074642EB174216EB0C4642EB59
:101B30001C456A1854F1000148BF7047B61952415C
:101B400041EB0101A3F10103704795F0000F37D07D
:101B50004FEA11424FEA144721EA024624EA074CB1
:101B600002FB07F106FB07F70CFB06F402FB0CFC7B
:101B700014EB074441EB17414FEA154714EB0C44B3
:101B800041EB1C4125EA074C02FB07F506FB07F772
:101B90000CFB06F602FB0CFC16EB074645EB174563
:101BA00016EB0C4645EB1C42121951F1000148BFDF
:101BB0007047B619524141EB0101A3F1010370478F
:101BC0004FEA14454FEA114724EA054621EA074C3B
:101BD00005FB07F106FB07F70CFB06F24FF00006CA
:101BE00005FB0CFC12EB074241EB174112EB0C42D8
:101BF00051EB1C4148BF7047921841EB0101A3F122
:101C0000010370477CB506460C4615468DF800600A
:101C1000E0B28DF801008DF80250684600F05CFAE1
:101C20007CBD0000012909D10A4A12680A4B034011
:101C30001A43084BC43BC3F8C42009E041B9054A24
:101C40001268054B83431A40024BC43BC3F8C420BF
:101C500070470000C4C00F40DEF7EFEF70B50646D6
:101C60000D480468304600F019F8054635B1012DDD
:101C700006D0022D06D0032D08D105E0042505E08D
:101C8000012503E0022501E0082500BF00BFB4FBE9
:101C9000F5F4204670BD0000140000100146202914
:101CA00003D20A46064B186804E0A1F12002044B57
:101CB0001B1D186820FA02F303F0030070470000B0
:101CC000A8C10F40002100E0491C8142FCD37047AD
:101CD00070B506460C46304600F004F8054605B1DE
:101CE000EC6170BD01460020052912D2DFE801F049
:101CF0000305080B0E0008480CE00748203009E0F7
:101D00000548403006E00448603003E00248803077
:101D100000E000BF00BF704700C009202DE9F0417E
:101D200007460D4616463846FFF7DCFF04463CB131
:101D30001EB120682843206002E02068A84320608C
:101D4000BDE8F08170B506460C463046FFF7CAFF85
:101D5000054605B1AC6170BD10B54FF08051012052
:101D6000FFF7B6FF4FF000510120FFF7B1FF4FF032
:101D700000410120FFF7ACFF04210220FFF7A8FF7C
:101D800008210220FFF7A4FF10210220FFF7A0FF87
:101D900020210220FFF79CFF40210220FFF798FF3F
:101DA00010BD10B54FF080510120FFF7CBFF4FF071
:101DB00000510120FFF7C6FF4FF000410120FFF75F
:101DC000C1FF04210220FFF7BDFF08210220FFF719
:101DD000B9FF10210220FFF7B5FF20210220FFF7F5
:101DE000B1FF40210220FFF7ADFF10BD10B5044642
:101DF0000A2C6ED2DFE804F06D05101B26303A4441
:101E00004E58012211071046FFF788FF4FF080510E
:101E10000120FFF75DFF5CE0012251071046FFF74C
:101E20007DFF4FF000510120FFF752FF51E00122EA
:101E3000D1071046FFF772FF4FF000410120FFF776
:101E400047FF46E0012204210220FFF767FF04213B
:101E50000220FFF73DFF3CE0012208210220FFF7AE
:101E60005DFF08210220FFF733FF32E0012210213D
:101E70000220FFF753FF10210220FFF729FF28E07F
:101E8000012220210220FFF749FF20210220FFF735
:101E90001FFF1EE0012240210220FFF73FFF4021EB
:101EA0000220FFF715FF14E001224FF030411046E9
:101EB000FFF734FF01227C210220FFF72FFF4FF0B4
:101EC00030410120FFF704FF7C210220FFF700FFD3
:101ED00000BF00BF10BD10B50446092C31D2DFE8A9
:101EE00004F030050B11171C21262B004FF08051F8
:101EF0000120FFF7EDFE24E04FF000510120FFF735
:101F0000E7FE1EE04FF000410120FFF7E1FE18E080
:101F100004210220FFF7DCFE13E008210220FFF776
:101F2000D7FE0EE010210220FFF7D2FE09E02021AB
:101F30000220FFF7CDFE04E040210220FFF7C8FE9B
:101F400000BF00BF10BD10B504460A2C3BD2DFE82D
:101F500004F03A050B11171C21262B304FF080514D
:101F60000120FFF7EFFE2EE04FF000510120FFF7B8
:101F7000E9FE28E04FF000410120FFF7E3FE22E0F8
:101F800004210220FFF7DEFE1DE008210220FFF7FA
:101F9000D9FE18E010210220FFF7D4FE13E0202123
:101FA0000220FFF7CFFE0EE040210220FFF7CAFE1D
:101FB00009E04FF030410120FFF7C4FE7C210220F0
:101FC000FFF7C0FE00BF00BF10BD000010B5044603
:101FD00000201A4908602CE0FFF7BEFE0120FFF741
:101FE000B2FF0320FFF7AFFF0520FFF7ACFF07208C
:101FF000FFF7A9FF12490968C808FFF763FEFFF75A
:10200000ABFE0220FFF79FFF0420FFF79CFF062096
:10201000FFF799FF0820FFF796FF09490968C808EC
:10202000FFF750FEFFF798FE04480068401C034984
:10203000086002480068A042CEDB10BD0C00001012
:102040001400001010B5044600202049086038E054
:1020500001201F49086011E01D490878FFF773FF50
:102060001C490968C808FFF72DFE19490878FFF7D1
:1020700032FF17480068401C154908601448006882
:102080000828E9DD08201249086011E010490878A5
:10209000FFF759FF0F490968C808FFF713FE0C49FD
:1020A0000878FFF718FF0A480068401E08490860D2
:1020B000074800680128E9DA04480068401C034921
:1020C000086002480068A042C2DB10BD0C0000108E
:1020D000100000101400001010B50446A2786178BA
:1020E000207800F0C5FCE2786178207800F0E0FC10
:1020F00022796178207800F0A3FC10BD0FB430B5D0
:10210000A1B0002404E000200DF80400601CC4B25B
:10211000802CF8DB25A820906846209A2499FEF7A9
:1021200097F8002020906846FEF7A4F8C5B2002476
:1021300006E01DF80410054800F0E6F8601CC4B283
:10214000AC42F6DB21B030BC5DF814FB00C00040AF
:1021500020204B4908604B48D0F8A00100F0200037
:1021600030B100BF4648006800F040000028F9D0B8
:10217000032043499C39086000204249C1F8A80166
:102180003F490C31086001203D49943908603E48C0
:102190003C4984310860AA203A498C3108605520B6
:1021A00008600120374980310860AA2035498C3108
:1021B000086055203349C1F88C0000BF3148883091
:1021C000006800F080600028F8D003202D4980319D
:1021D0000860AA202B49C1F88C00552029498C3170
:1021E000086000BF27488830006800F04070B0F1F8
:1021F000407FF7D123202349A4310860AA20214938
:10220000C1F8AC0055201F49AC31086001201D49C0
:10221000A0310860AA201B49AC310860552019493B
:10222000C1F8AC0000BF1748A830006800F4806017
:102230000028F8D003201349A0310860AA201149D2
:10224000C1F8AC0055200F49AC31086000BF0D4803
:10225000A830006800F44070B0F5407FF7D10B481B
:102260000849C431086000200649C1F8C801084681
:10227000006820F4704040F480400860704700001F
:10228000A0C10F4000C00F4063000500DE87280496
:1022900010B50024154800F009FA044621461348F9
:1022A00000F092FA1248006828B9022C03D10120EC
:1022B0000F49086019E00E480068012805D10D4853
:1022C000047002200A4908600FE0094800680228EB
:1022D0000BD1032C03D101200749086002E007A0BD
:1022E000FFF70CFF00200249086010BD00C000404D
:1022F0000000001008000010040000105258206573
:1023000072726F720A00000013B5044601231A4668
:1023100001A9204600F00CFA1CBD4FF4E131016028
:1023200003214171002101718171704770B504462C
:102330000D467948844208D07848844205D07848D0
:10234000844202D07748844200D103E0D12176A0B4
:1023500000F021FB687940B16879012805D06879DF
:10236000022802D06879032800D103E0D2216EA0B0
:1023700000F011FBA87910B1A879012800D103E081
:10238000D32169A000F007FB287958B128790128EA
:1023900008D02879022805D02879032802D0287986
:1023A000042800D103E0D4215FA000F0F4FA5A48D9
:1023B000844203D101210820FFF734FC57488442AE
:1023C00003D101211020FFF72DFC5548844203D191
:1023D00001210806FFF726FC5248844203D101215F
:1023E0004806FFF71FFC4D48844223D10720207286
:1023F0000020207200E02678207D00F001000028F7
:10240000F9D1802084F8300000BF207D00F020004A
:102410000028FAD0002084F8300060602073206229
:10242000207484F84C0084F8540084F85000267E10
:10243000267D1AE0072020720020207200E0267816
:10244000207D00F001000028F9D1802084F83000C0
:1024500000BF207D00F020000028FAD0002084F882
:102460003000606020732062267D2E48844202D1B5
:10247000002084F824002046296800F039FB274812
:10248000844203D1207B00F0C00602E0207B00F0F4
:10249000C006687930B1012806D0022807D0032889
:1024A00008D108E000BF09E046F0010606E046F06A
:1024B000020603E000BF46F0030600BF00BF287914
:1024C000C0B146F008062879012806D0022806D0B7
:1024D000032807D004280BD107E000BF09E046F02D
:1024E000100606E046F0200603E046F0300600E065
:1024F00000BF00BFA87928B1012802D146F0040628
:1025000001E000BF00BF00BF0448844201D1267330
:1025100000E0267370BD000000C0004000000140D4
:102520000080094000C009402E2E5C4875696E731A
:102530005F4E58505F4C5043313736385F4C6962BC
:10254000726172795C447269766572735C736F75DF
:102550007263655C6C7063313778785F7561727433
:102560002E6300002DE9F04104460D4617463C4815
:10257000844208D03B48844205D03B48844202D084
:102580003A48844200D104E040F2B32138A000F080
:1025900002FA0FB1012F00D104E04FF42D7134A0E5
:1025A00000F0F9F9072D15D2DFE805F00406080A56
:1025B0000C0E110001260DE002260BE0042609E0B6
:1025C000082607E0802605E04FF4807602E04FF40D
:1025D000007600BF00BF2348844213D15DB1012DB6
:1025E00009D0022D07D0052D05D0062D03D0032DCF
:1025F00001D0042D00D114E04FF434711CA000F080
:10260000CAF90EE03DB1012D05D0022D03D0052DF4
:1026100001D0062D00D104E04FF4357114A000F074
:10262000BAF9012F0AD10F48844203D160683043C0
:10263000606013E06068304360600FE009488442E6
:1026400006D1606840F28F31B1430840606005E018
:10265000606840F20731B14308406060BDE8F08136
:1026600000C00040000001400080094000C0094057
:102670002E2E5C4875696E735F4E58505F4C504308
:10268000313736385F4C6962726172795C447269C5
:10269000766572735C736F757263655C6C706331C1
:1026A0003778785F756172742E63000010B5044648
:1026B0000C48844208D00C48844205D00B48844220
:1026C00002D00B48844200D104E04FF4FD7109A010
:1026D00000F061F90448844201D1207810BD2078CF
:1026E000FCE7000000C000400000014000800940FD
:1026F00000C009402E2E5C4875696E735F4E5850BD
:102700005F4C5043313736385F4C69627261727981
:102710005C447269766572735C736F757263655C35
:102720006C7063313778785F756172742E63000066
:102730002DE9FF5F80468A46934657465C460398DC
:10274000012825D1002520E04FF0FF3905E0B9F13F
:10275000000F00D107E0A9F1010998F8140000F07A
:1027600020000028F3D000BFB9F1000F00D10EE027
:10277000102607E017F8011B404600F025F8761EEA
:10278000641E6D1C0EB1002CF4D1002CDCD117E0BE
:10279000002512E098F8140000F0200000B90EE0C7
:1027A000102607E017F8011B404600F00DF8641EE4
:1027B000761E6D1C0EB1002CF4D1002CEAD100BFA6
:1027C000284604B0BDE8F09F70B504460D460C489D
:1027D000844208D00B48844205D00B48844202D082
:1027E0000A48844200D104E040F2E11108A000F060
:1027F000D2F80448844201D1257000E0257070BDF4
:1028000000C00040000001400080094000C00940B5
:102810002E2E5C4875696E735F4E58505F4C504366
:10282000313736385F4C6962726172795C44726923
:10283000766572735C736F757263655C6C7063311F
:102840003778785F756172742E63000070B5044646
:102850000D461E48844208D01D48844205D01D48BC
:10286000844202D01C48844200D104E040F2F2319C
:102870001AA000F090F80DB1012D00D104E040F253
:10288000F33116A000F087F8012D10D110488442D2
:1028900006D194F8300040F0800084F8300014E055
:1028A00094F8300040F0800084F830000DE00848D3
:1028B000844205D194F83000002084F8300004E010
:1028C00094F83000002084F8300070BD00C0004053
:1028D000000001400080094000C009402E2E5C48E5
:1028E00075696E735F4E58505F4C504331373638C0
:1028F0005F4C6962726172795C4472697665727369
:102900005C736F757263655C6C7063313778785F88
:10291000756172742E6300001CB501220221002033
:10292000FFF770F9012203210020FFF76BF96846D9
:10293000FFF7F3FC4FF4E130009003208DF8050021
:1029400000208DF804008DF8060069460348FFF763
:10295000EDFC01210148FFF779FF1CBD00C00040DC
:10296000490050EAC12018BF04204A0D18BF40F0AA
:10297000010040F2FF72B2EB515F08BF40F002006D
:10298000012808BF0520704730380A2801D20120ED
:1029900070470020704700BFFEE7000010B50446F6
:1029A000012C09D1FFF7FDF90B490968C808FFF7A9
:1029B00089F9FFF7D1F90EE0022C03D10320FFF7CC
:1029C00005FB08E0042C03D10320FFF73BFB02E0EA
:1029D00002A0FFF793FB10BD14000010496E766152
:1029E0006C696420436F6D6D616E640A00000000C5
:1029F0000920FFF7FBF9FFF78FFF05200121814038
:102A00004209920002F1E022C2F8001100BF012247
:102A100000210848FFF7A6FD0BE00748006840B119
:102A200006480078FFF7BAFF002003490860034911
:102A30000870F2E700C00040040000100800001019
:102A400030B50B460949012A07D151F8204001252C
:102A50009D402C4341F8204006E051F820400125DC
:102A60009D40AC4341F8204030BD000068C00240AA
:102A7000F0B504460B461546194660000B4A10296E
:102A800001D31039401C52F820604FEA410C032753
:102A900007FA0CF7BE4342F8206052F820604F005E
:102AA00005FA07F73E4342F82060F0BD00C002403F
:102AB000F0B504460B461546194660000B4A10292E
:102AC00001D31039401C52F820604FEA410C032713
:102AD00007FA0CF7BE4342F8206052F820604F001E
:102AE00005FA07F73E4342F82060F0BD40C00240BF
:102AF0002DE9F04F8BB004468946002009907048BC
:102B0000844204D10620FFF7A9F8074616E06D4875
:102B1000844204D10820FFF7A1F807460EE06A4876
:102B2000844204D13020FFF799F8074606E0674851
:102B3000844203D13220FFF791F807464FF0FF3B64
:102B400000200790069000252E464FF001084DE02A
:102B50000020089040E00898404400FB09FC002059
:102B6000010741EA171138070022A0FB083E01FBCC
:102B700008E100FB02106246CDE900300023DDE9E8
:102B80000001FDF7BDFBCDE9040104980390DDF8D9
:102B900014A00398B0F1004F04D903984042039069
:102BA0000AF1010ABAF1000F02D0BAF5803F00D94C
:102BB0000FE0039858450BD2DDF80CB000265546BF
:102BC00008980790CDF81880BBF1000F00D106E0FF
:102BD00000BF0898401C089008984045BBD300BF30
:102BE000BBF1000F00D104E008F10108B8F10F0FAC
:102BF000AED900BF002185EA01007140084302D12F
:102C00000BB0BDE8F08F3809069900FB01FC0846BF
:102C1000079908440021A0FB052301FB053100FBB7
:102C200006100346CDE9002060460021FDF768FB51
:102C300002900298814503D90298A9EB000B02E0AB
:102C40000298A0EB090B64200BFB00F0B0FBF9FB32
:102C5000BBF1030F32D21B48844216D1207B40F0D7
:102C600080002073280A40EA066020712570207BCE
:102C700000F07F002073F021069801EA0010079908
:102C800001F00F010843A06216E0207B40F08000B5
:102C90002073280A40EA066020712570207B00F02E
:102CA0007F002073F021069801EA0010079901F0D7
:102CB0000F01084384F828000120099009989FE734
:102CC00000C00040000001400080094000C00940F1
:102CD00010B500290AD00878002807D005487844A4
:102CE000FEF782FB002801D0002010BD0248784486
:102CF00010BD00006E0100006601000010B5002943
:102D00000AD00878002807D005487844FEF76CFB05
:102D1000002801D0002010BD0248784410BD0000FA
:102D20005E01000056010000FDF773BFFEF7A8B872
:102D300000000000000000003031323334353637F7
:102D400038394142434445464030580030313233EF
:102D500034353637383961626364656640307800EF
:102D60000400000800000000000000020001000054
:102D70001030313233343536373839616263646547
:102D80006678700030313233343536373839414265
:102D9000434445465850000002400000000000A097
:102DA0000000000005400000000000C80000000016
:102DB0000C4000000000409C000000001940000092
:102DC0000020BCBE0000000034400000BFC91B8EC4
:102DD00000000004B5400000504BCFD06607E2CFA2
:102DE000010000006C4100003E8251AADFEEA734D2
:102DF00001000000D9420000DCB5A0E23A301F9784
:102E0000FFFFFFFFB4450000FD25A0C8E9A3C14FA7
:102E1000FFFFFFFFFF3F00000000008000000000F8
:102E2000FF3F00000000008000000000782F00003D
:102E3000000000101800000008010000902F0000A2
:102E40001800001060020000240100001C000000B7
:102E500043000000F8FFFFFF0C0000000E00000020
:102E60000F0000002E0000001001000043000000D1
:102E7000F8FFFFFF0040404040404040404041419B
:102E8000414141404040404040404040404040403F
:102E900040404040400502020202020202020202D9
:102EA00002020202022020202020202020202002D6
:102EB0000202020202029090909090901010101066
:102EC0001010101010101010101010101010101002
:102ED0000202020202028888888888880808080896
:102EE0000808080808080808080808080808080862
:102EF000020202024000000000000000000000008A
:102F000000000000000000000000000000000000C1
:102F100000000000000000000000000000000000B1
:102F200000000000000000000000000000000000A1
:102F30000000000000000000000000000000000091
:102F40000000000000000000000000000000000081
:102F50000000000000000000000000000000000071
:102F60000000000000000000000000000000000061
:102F70000000000000000000000000000000000051
:102F800000000000000000000000000000E1F50566
:0400000500000215E0
:00000001FF
